:020000042001D9
:1010000072B6374880F30988364A374913684FF07B
:10101000404443F4700313600C600023E1EE103A87
:1010200006228B6082F31488BFF36F8F2F4B304AF8
:1010300093420BD2D9430A4422F0030204321A44E9
:101040004FF0553143F8041B9342FBD1294B8342A7
:101050000CD2294A191D521A22F0030204321A44F2
:101060004FF0553143F8041B9342FBD103F028FDA8
:10107000224A234B9A420CD2D043184420F003005A
:10108000204B0430184453F8041B42F8041B8342DD
:10109000F9D11D4B1D4A93420AD2D9430A4422F08A
:1010A000030204321A44002143F8041B9342FBD18B
:1010B000174D184C00F08CF9AC4204D254F8043BA4
:1010C0009847AC42FAD3144D144C00F029F8AC42C6
:1010D00004D254F8043B9847AC42FAD300F080F9AC
:1010E0000008001088ED00E034EF00E00000001080
:1010F000000400100004001003080010BC5B012075
:10110000C05B0120BC5B0120C05B0120346E01206C
:10111000085A0120085A0120085A0120085A0120C3
:1011200070B588B000F034FF4B4E4C484C4C4FF437
:101130000061002202F0B4FB48484FF480510022C5
:10114000402502F0ADFB30464021012202F0A8FB11
:1011500020462946012202F0A3FB7583658300F037
:101160005FFA3E484FF4006140F2025202F098FBF1
:101170003A484FF4805140F2025202F091FB20466F
:101180004FF4807140F21A6202F08AFB20464FF45D
:10119000007140F21A6202F083FB20464FF4806136
:1011A00040F21A6202F07CFB20464FF4006140F2EC
:1011B0001A6202F075FB20464FF4805140F21A6229
:1011C00002F06EFB40F21A620421264802F068FB2E
:1011D000322000F095FC0021234801F0E1F822487C
:1011E00000F066FF214804F0BBF875831F48258393
:1011F0001F4904F0EDF858B11E4B1A6D936B23F4A0
:10120000002393634FF47A7000F07AFC04F040F905
:10121000184C19486946022200F0EAFC04A9174854
:10122000042200F0E5FC226D936B23F4002393630A
:101230004FF47A7000F064FC2046114901F070F917
:10124000226D936B43F400239363062000F020FD8E
:101250000428FAD1226DD1E70018024000000240B4
:1012600000080240000C02404C5E0120AC6D0120E1
:1012700040590120985E0120C06D0120C46D0120FD
:1012800030590120000000000000000000000000B4
:10129000844641EA000313F003036DD1403A41D381
:1012A00051F8043B40F8043B51F8043B40F8043B40
:1012B00051F8043B40F8043B51F8043B40F8043B30
:1012C00051F8043B40F8043B51F8043B40F8043B20
:1012D00051F8043B40F8043B51F8043B40F8043B10
:1012E00051F8043B40F8043B51F8043B40F8043B00
:1012F00051F8043B40F8043B51F8043B40F8043BF0
:1013000051F8043B40F8043B51F8043B40F8043BDF
:1013100051F8043B40F8043B51F8043B40F8043BCF
:10132000403ABDD2303211D351F8043B40F8043B6F
:1013300051F8043B40F8043B51F8043B40F8043BAF
:1013400051F8043B40F8043B103AEDD20C3205D37F
:1013500051F8043B40F8043B043AF9D2043208D077
:10136000D2071CBF11F8013B00F8013B01D30B88E9
:1013700003806046704700BF082A13D38B078DD0C7
:1013800010F003038AD0C3F10403D21ADB071CBF99
:1013900011F8013B00F8013B80D331F8023B20F803
:1013A000023B7BE7043AD9D3013A11F8013B00F83C
:1013B000013BF9D20B7803704B7843708B788370C4
:1013C00060467047000000000000000000000000C0
:1013D000704700BF00000000000000000000000097
:1013E000FEE700BF00000000000000000000000059
:1013F000FEE700BF00000000000000000000000049
:1014000000F0CEFA00DF00BF000000000000000086
:10141000064A536823F001035360EFF309836833EE
:1014200083F30988002383F31188704730EF00E0CD
:1014300008B5094B094A002199600720DA6010219C
:1014400000F0C6F80A20202100F0C2F80B2080210D
:10145000BDE8084000F0BCB800ED00E00003FA056C
:10146000202383F311881A4B5B6813F400631FD0A9
:10147000F1EE10FAEFF30983164A4FF08071D2684B
:1014800043F8082C43F84C1CA3F1680282F3098846
:1014900011498A69907F70B10868916882688A42B0
:1014A00094BF002201227AB10C4A43F8502C7047B5
:1014B00083F3118870470868916882688A4234BF54
:1014C00000220122002AEFD1054A43F8502C704730
:1014D00000ED00E030EF00E0785D01200114012014
:1014E00004140120000000000000000000000000C3
:1014F00008B5202383F3118800F0C2F8002383F39A
:101500001188BDE80840FFF7ABBF00BF0000000036
:101510002DE9F04F2DED108AC1F80CD0D0F80CD089
:10152000BDEC108ABDE8F08F000000000000000054
:10153000002383F311882846A04700F011FB704771
:1015400020F0030202F1604202F5614270B44309E7
:1015500000F00304D2F80053E400FF269B00A640ED
:1015600003F16043A14025EA060503F56143012428
:1015700000F01F0004FA00F02943C2F8001370BC09
:10158000C3F88001186070470000000000000000F0
:10159000420930B4203200F01F050C4C20F0030348
:1015A0000121A94003F1604344F8221003F561438F
:1015B00000F00300D3F80013C000FF22824021EAAC
:1015C0000202C3F8002330BC704700BF00E100E016
:1015D00020F0030303F1604303F56D4300F00300C3
:1015E00010B4C0009A69FF24844022EA04028140BA
:1015F000114399615DF8044B704700BF0000000083
:10160000024B034A9B699A61FEE700BF785D0120A7
:10161000E055012000000000000000000000000074
:1016200000B583B0FFF704FF00F0D2F800F058F8DF
:1016300040210C4800F0C4F90B490122886102776F
:10164000002383F3118862B6896908488861009392
:101650004FF4B071064B074800F012FA03B05DF882
:1016600004FB00BFC05B0120785D0120F055012024
:1016700001160120085C01200000000000000000AD
:1016800070B5134B9B699A7F0AB1013A9A771A6A2F
:10169000104C01321A62E36822680133A242E3600F
:1016A00014D09668013E966086B91168D5682160AD
:1016B000D66000234C6083F311881069A84720236B
:1016C00083F3118822689368002BEED070BD00BFB1
:1016D000785D0120685D012000000000000000002E
:1016E000044B4FF0FF3100225B601B609960DA60B1
:1016F000704700BF685D012000000000000000008E
:1017000070B40C4E3468A5680361A942C26004D964
:101710002468491BA5688D42FAD363684360B442CC
:10172000046060601860816002D0A368591AA160EB
:1017300070BC7047685D01200000000000000000E0
:10174000074A0368934203D0996882680A449A6002
:1017500042681360016800234A60C360704700BF9D
:10176000685D012000000000000000000000000093
:1017700010B4202383F31188037F032B18D00D2B83
:101780001AD083B14FF0FF34002381680D4A4462C0
:101790000377126893688B42FBD251684160026004
:1017A00000235060086083F311885DF8044B704794
:1017B000426A93680133936090E80C001A600268F3
:1017C0005360DFE7785D01200000000000000000AA
:1017D000034B00225B601B605B611B619A6070477A
:1017E000785D012000000000000000000000000003
:1017F00000228168084B10B4044602771B689A687F
:101800008A42FBD25A686260236020465C601460A2
:101810005DF8044B704700BF785D012000000000B8
:10182000084B30B41A6899691468087701251420A8
:101830008877636015771C60104630BC9A61FFF7AB
:1018400067BE00BF785D01200000000000000000BE
:1018500030B54B1C87B012D00C4C0D4AA36905461D
:1018600001A8FFF74DFF2846FFF7DAFF049B13B1ED
:1018700001A8FFF765FFA369586A07B030BD034CA4
:10188000FFF7CEFFA369586A07B030BD785D01202D
:10189000711701200000000000000000000000009F
:1018A000144BF0B49E6984680546B068696284424E
:1018B0004FF000020BD82A771B689A689442FBD934
:1018C0005A686A602B605D601560F0BC70473277C3
:1018D0001A46126891688842FBD9546874600127DF
:1018E0003260566026602F77314628469D61F0BCF5
:1018F000FFF70EBE785D0120000000000000000030
:101900000E4A1068F0B40368946913600127142626
:101910000025A1685A60077703469061A67725776E
:1019200000E01B689A688A42FBD25A6862602360B2
:1019300021465C601460F0BCFFF7EABD785D0120D1
:101940000D4A106870B4036894691360012600257D
:10195000A1685A60067703469061257700E01B680E
:101960009A688A42FBD85A686260236021465C60AC
:10197000146070BCFFF7CCBD785D01200000000052
:10198000044B1A689B6992689B689A4200D870471A
:10199000FFF7D6BF785D01200000000000000000C6
:1019A000034B9B699B7F0BB1FFF7CABFFFF7A8BF33
:1019B000785D012000000000000000000000000031
:1019C000F0B50F4C016466694661002200F12C05F8
:1019D0004FF0020C4FF0140E00F1280781600461F3
:1019E00080F81CC0606180F81EE04277C2638263A9
:1019F00002628261306187620563C562F0BD00BF2B
:101A0000785D0120000000000000000000000000E0
:101A10002DE9F04E6439174FDFF85C90D7F814E0E9
:101A200001440025C16094460B6400F12C024FF084
:101A3000020B4FF0140A00F12806089B4B64C1F812
:101A40006090C0F808C00761C0F814E0C0F840C05A
:101A500080F81CB080F81EA045777861C563856367
:101A600005628561CEF8100086620263C262BDE83D
:101A7000F08E00BF785D01203115012000000000CC
:101A80002DE9F84F984696460446202383F31188A3
:101A9000194B0A9F5A69DFF864B064390144002584
:101AA00000F12C0600F1280C4FF0020A4FF0140947
:101AB000C160C1F840804F64C1F860B00361C0F8F4
:101AC00008E04261C0F840E0586180F81CA080F84E
:101AD0001E904577C563856305628561294610615F
:101AE000C0F828C00663C662FFF7DAFE2B4683F310
:101AF00011882046BDE8F88F785D0120311501205E
:101B000008B50146202383F311880620FFF7A0FEC5
:101B1000002383F3118808BD0000000000000000CE
:101B200038B50E4B9C692546606255F8280FA842CF
:101B300006D00368A362FFF75BFEA06AA842F8D153
:101B4000637F9B0704D1636922691A61226953612B
:101B50000E20BDE83840FFF763BE00BF785D01206E
:101B6000202383F31188FFF7DBBF00BF00000000D4
:101B700040600060816070470000000000000000CD
:101B80008368013B002B836001DB0020704710B5A8
:101B9000074CA269506241685160034610605A6068
:101BA00003200A60FFF73CFEA369586A10BD00BF1E
:101BB000785D01200000000000000000000000002F
:101BC00083680133002B836000DD704703681A6867
:101BD00002600021506018465962FFF709BE00BF3D
:101BE0000023406000608360704700BF0000000079
:101BF00030B4202383F31188064C0368A5690B6079
:101C00000024016023464D608A60CC6083F3118814
:101C100030BC7047785D012000000000000000002B
:101C200008B5836B027F1943082A81630BD0092A08
:101C300000D008BD436A19408B42FAD1FFF7D8FDA6
:101C40000023436208BD436A1942F7D108BD00BFB3
:101C500070B50468A04205460E4608D0201D0BC88A
:101C60003343E360FFF7DCFF2468A542F6D170BD83
:101C700008B5202383F31188FFF7EAFFFFF780FE02
:101C8000002383F3118808BD00000000000000005D
:101C900038B50D4B9D69202383F31188AB6B10EA97
:101CA000030207D1044668620820FFF7B9FDAB6B59
:101CB00004EA03025042104023EA0003AB6300230E
:101CC00083F3118838BD00BF785D0120000000005B
:101CD00071B1094B9B6910B458624468024683E8AD
:101CE00014000D20536023605DF8044BFFF7B0BD76
:101CF0004FF0FF30704700BF785D0120000000000A
:101D000030B4029C046200250A4485600261406090
:101D1000006041618161C160C36130BC704700BF38
:101D2000034640699A69904210B59A681BD0013207
:101D3000441C9A605C61017059691A6991420BD226
:101D4000186898420DD002681A605360FFF750FD82
:101D500000234362184610BD1868DA685A61984239
:101D6000F1D1002010BD002AE1D06FF0030010BDBA
:101D700070B520230E46044683F31188C3692BB146
:101D8000984703E0FFF7A4FF002815DBA56820466D
:101D90003146002DF6D0A2692169531C8B4205F112
:101DA000FF35A361A56028BFE368107828BFA36151
:101DB000002383F3118870BD2B4683F3118870BD17
:101DC0002DE9F0471E46044689469246D0F81C800D
:101DD000202383F311880027B8F1000F05D0204697
:101DE000C04702E0FFF774FFE0B9A568204631461E
:101DF000002DF7D0A369013D5A1CA261A5601B7894
:101E000009F8013B2369A2699A4224BFE368A361F0
:101E1000002383F311880137BA4506D0202383F3CA
:101E20001188D9E72B4683F311883846BDE8F0873F
:101E300030B4029C04628D180561406000608260CD
:101E400041618161C160C36130BC70470000000026
:101E5000F8B504460F461646202383F3118803E0A5
:101E6000FFF736FF002819DBA56820463146002D14
:101E7000F6D06369013D5A1C6261A5601F70236939
:101E800062699A4224BFE3686361E3690BB120464B
:101E90009847002383F311881846F8BD2B4683F337
:101EA0001188F8BD000000000000000000000000E4
:101EB00038B5826943699342836818D00569511C1B
:101EC000013383608161A94214780DD20268824295
:101ED00008D01168016003464B601046FFF788FC8C
:101EE00000234362204638BDC3688361EEE7002BC0
:101EF000E4D06FF0020038BD0000000000000000D8
:101F00002DE9F84F9A4604460E461746D0F81C9025
:101F1000202383F311884FF00008A56806F1010B18
:101F20006A1E20460DB36369A2605A1C6261327852
:101F30001A70236962699A4224BFE3686361B9F148
:101F4000000F00D0C847002383F31188013F08F138
:101F5000010813D0202383F31188A5685E466A1E0A
:101F600006F1010B2046002DDDD120465146FFF73A
:101F7000AFFE0028D1D02B4683F311884046BDE840
:101F8000F88F00BF0000000000000000000000000B
:101F900008B500F0DDFF094801F09AFB00F028F8D1
:101FA00000F066F800F04CFA00F0E2F900F090FA68
:101FB00000F09EFABDE8084002F0C2BD9057012033
:101FC00008494A68104482424B6802D29A4202D9B8
:101FD00070479A42F7D9984294BF00230123002BFF
:101FE000F1D17047001000E0000000000000000088
:101FF00001F076B8000000000000000000000000C2
:1020000000230122027043608360C3600361436167
:102010001830FFF7E5BD00BF000000000000000021
:10202000C3689B0F0CD0012B08D18268C38802F0D3
:102030003F0043EA004001308002704700207047B3
:10204000416882688B0FC2F3090043EA8000C1F344
:10205000C2310231C2F303420130093A8840904054
:10206000704700BF000000000000000000000000FA
:1020700002F08EBB00000000000000000000000025
:102080000122002302704360704700BF000000007F
:102090000379052B01D001207047836A4B604FF410
:1020A00000730B600020704700000000000000007B
:1020B0002DE9F041032382B00371044601F000F9D9
:1020C00000210A46204601F033F9204601AB0821E1
:1020D0004FF4D57201F05CF988B9019B0122C3F37A
:1020E00003239342226300F0A680204601F000F90A
:1020F000022323710125284602B0BDE8F0810021AA
:1021000021630A46204601F013F9226B524B5349D2
:1021100002F00F02012A0CBF98468846642603E0AD
:10212000013EE2D0FFF7ECFC3721002201AB204654
:1021300001F02EF94A4D2921424601AB0028D4D1A5
:10214000019F3D402046002DCFD101F001F900282C
:10215000CBD1019B002B4FF00A00E1DA5B0003D5E5
:10216000236B43F01003236320460221002204F175
:10217000080301F0B5F90028B7D102460321204633
:1021800004F1380301F004F90028AED104F1180677
:10219000334620460921A26B01F0A2F90028A4D100
:1021A000204601F09DF820460721A26B01AB01F00B
:1021B000EFF8002899D1204610214FF4007201ABAE
:1021C00001F0E6F8054600288FD1019A244B134010
:1021D000002B8AD1236B03F00F03012B21D820465B
:1021E000012101F08DF820463721A26B01AB01F0EF
:1021F000CFF800287FF479AF019A194B1340002BD8
:102200007FF473AF01AB20460621022201F0C0F833
:1022100000287FF46AAF019A114B1340002B7FF422
:1022200064AF3046FFF7FCFEA06200283FF45DAFCC
:10223000052323715FE702463721204601AB01F0F9
:10224000A7F800287FF451AF019A054B1340002BEB
:102250007FF44BAF59E700BF000010C000001080B2
:1022600008E0FFFD0000000000000000000000008A
:1022700070B54D1E866A1D44B542044605D9436BB0
:1022800043F080034363012070BD0625057101F012
:1022900007FA0523237170BD000000000000000054
:1022A00070B54D1E866A1D44B542044605D9436B80
:1022B00043F080034363012070BD0725057101F0E1
:1022C000F7F90523237170BD000000000000000035
:1022D00038B50579052D01D0012038BD0446082305
:1022E000037101F0EDF9257138BD00BF0000000059
:1022F00010B5044682B001AB20460D21A26B01F05F
:1023000047F80A4B78B9019A1340C2F343214BB9FD
:10231000042908D04FF0010004D3072902D8FFF7A1
:10232000EFFBE8E7012002B010BD00BF08E0FFFDB1
:1023300038B5202383F311880379022B0FD00423AF
:1023400003710446002383F31188FFF7D1FF05468C
:10235000204600F0CDFF02232371284638BD00231C
:1023600083F311881D46284638BD00BF00000000D9
:1023700000F066BF00000000000000000000000048
:10238000044B03600122002302714363C362836232
:10239000704700BF10560120000000000000000040
:1023A00010B52023044683F31188C16200F058FF62
:1023B00002232371002383F3118810BD0000000065
:1023C0000C30FFF7FDBC00BF000000000000000063
:1023D0000C304FF0FF33FFF7F3BC00BF00000000EC
:1023E0003030FFF78DBD00BF00000000000000008E
:1023F00030304FF0FF33FFF783BD00BF0000000017
:102400000C30FFF7B5BC00BF00000000000000006A
:102410000C304FF0FF31FFF7ABBC00BF00000000F5
:102420003030FFF715BD00BF0000000000000000C5
:1024300030304FF0FF32FFF70BBD00BF000000004F
:1024400002F0FEBA000000000000000000000000E2
:1024500070B50E4B044682B040F8043B0126009450
:102460000B461546606004F1540104F10C0026721D
:102470002022FFF745FC00942B4604F1300004F1C4
:1024800074012022FFF7D4FC02B070BD3056012049
:1024900038B5436904460D463BB1294604F10C00AA
:1024A000FFF73EFC00280BDB38BD04300421FFF7AA
:1024B000CFFB294604F10C00FFF732FC0028F3DAC9
:1024C000201D8021BDE83840FFF7C2BB000000009E
:1024D00002F026B80000000000000000000000002C
:1024E000002301220270436083600C30FFF778BB49
:1024F00001F016BC00000000000000000000000019
:102500000023012202704360C36183620362C362DD
:102510004362036303814381704700BF00000000F2
:1025200038B50446202383F3118800254160C56037
:1025300005614561856101F00BFC02222B4622708A
:1025400083F3118838BD00BF0000000000000000C8
:1025500010B52023044683F3118801F069FC0123A0
:102560002370002383F3118810BD00BF000000001A
:1025700070B50646506914460D4618B10021142264
:1025800002F0DEFFA06918B10021142202F0D8FF8A
:1025900006EB85033046DC602946BDE8704001F05B
:1025A000E7BC00BF000000000000000000000000C9
:1025B00030B400EB81040025E468A469E260636044
:1025C0002570A56030BC01F0B3BD00BF0000000065
:1025D00030B400EB81040025E4686469E260636064
:1025E0002570A56030BC01F023BE00BF00000000D4
:1025F00070B5458945FA01F313F0010401D00120BB
:1026000070BD01238B401D43458101F021FF204611
:1026100070BD00BF000000000000000000000000CE
:1026200070B5058945FA01F313F0010401D00120CA
:1026300070BD01238B401D43058101F019FF204629
:1026400070BD00BF0000000000000000000000009E
:1026500043890B4110B513F0010401D0012010BDD6
:1026600001F01EFF204610BD000000000000000029
:1026700003890B4110B513F0010401D0012010BDF6
:1026800001F01EFF204610BD000000000000000009
:10269000002202210170A0F84C2080F84E2080F822
:1026A0004F2002814281C26002614261826180F8F2
:1026B000342001F0E5BB00BF000000000000000076
:1026C000F8B50023044680F8343000F1440201F0EC
:1026D0001FFD63689B686BB32046984750B3E56B5A
:1026E00094F8443094F84B1094F84A2042EA0122BE
:1026F000AA423CBFE263154613F0800FE36840F046
:102700008A80002D6ED15B69052284F83420204632
:102710001D70DD605D609D60294601F089FD20230C
:1027200083F3118820462946FFF77AFF2B4683F36F
:102730001188F8BD94F8443013F0600711D020469A
:10274000002101F0BDFE2046002101F0A9FE6368D2
:102750001B6813B1204605219847062384F83430BE
:10276000F8BD94F8455003F07F0242EA0526B6F51D
:10277000407F00F0038117DDB6F5C06F00F0E58003
:102780007ADDB6F5106F00F08A8040F6024296427C
:1027900000F00781B6F5006FD1D104F14F02012599
:1027A0002764A263E5639DE7022E00F0B78040F343
:1027B000AC80B6F5807F00F09880B6F5817FBED101
:1027C00094F84620002ABAD194F8482012F00F015C
:1027D00060D01206204600F10C8101F081FE94F8D1
:1027E000443057E09B69A26B0026042184F8341022
:1027F0002046DA605D601E709E60314601F098FCF4
:10280000202383F3118820463146FFF7F1FE33463B
:1028100083F31188F8BDC5B15B69A26B0026012165
:1028200084F834102046DA605D601E709E60314688
:1028300001F0FEFC202383F3118820463146FFF788
:10284000EFFE334683F31188F8BD9B69032284F8B9
:10285000342020461D70DD605D609D60294601F0DA
:1028600067FC202383F3118820462946FFF7C0FE2A
:102870002B4683F31188F8BD40F20232964221D0F4
:10288000B6F5A06F7FF45BAFB4F84420B2F5A06F4B
:1028900000F09D800025A563E563256422E794F898
:1028A000462084F84F20002A40F0828003222270C4
:1028B00062681268002AEDD020460221904794F801
:1028C0004430E7E794F84620002A7FF438AF94F8C4
:1028D000482012F00F01DDD01306204600F18E8053
:1028E00001F0DEFD94F84430D4E794F84620012A44
:1028F0007FF425AFB4F84C20A76322F00202E7630F
:1029000027643D46A4F84C20ECE6002E46D104F1A5
:102910004C0202252664A263E563E3E694F84810BE
:1029200011F0800F204601F00F0144D101F0D0FBDF
:10293000012844D002287FF402AF334BA363E06345
:102940002764054694F84430CCE6626894F8490060
:1029500094F84830556894F8471094F8462043EAB4
:1029600000232046A84700283FF4E9AE43680568E5
:10297000E563A363276494F84430B3E694F84620F3
:10298000012A7FF4DCAEB4F84C20A76342F00202C7
:10299000E76327643D46A4F84C20A3E6012E7FF4AC
:1029A000CEAE1A4AA26302250022E563226499E6AC
:1029B000042222707CE701F09BFB0128BAD1144B62
:1029C000A363E6632764354694F844308AE694F8B6
:1029D000463084F84E30204601F0BAFA63681B682E
:1029E00013B1204601219847032294F84430227005
:1029F00050E701F085FD94F844304BE701F060FDAD
:102A000094F8443046E700BF60560120505601203C
:102A100070560120000000000000000000000000CF
:102A200038B590F83430022B044643D0052B3AD009
:102A3000012B10D0002101F043FD2046002101F0C0
:102A40002FFD63681B6813B12046052198470623B4
:102A500084F8343038BD90F84B3090F84A20C16B80
:102A600042EA03228A42C26805D9158AB1FBF5F30E
:102A700005FB131505B393690025032284F8342060
:102A800029461D70DD605D609D60204601F050FBB1
:102A9000202383F3118820462946FFF7A9FD2B4602
:102AA00083F3118838BD036C03B19847002384F881
:102AB000343038BDC268DEE7536929461D70DD60D9
:102AC0005D609D6001F0B4FB202383F311882046F4
:102AD0002946FFF7A5FD2B4683F31188022384F8CE
:102AE000343038BD0000000000000000000000008D
:102AF00038B590F83430032B04462BD0042B11D07A
:102B00002046002101F0DCFC2046002101F0C8FC39
:102B100063681B6813B1204605219847062384F893
:102B2000343038BDC3685B690025052280F8342045
:102B300029461D70DD605D609D6001F079FB2023FA
:102B400083F3118820462946FFF76AFD2B4683F35D
:102B5000118838BDC3689B699B68002BD0D1036C7A
:102B600003B19847002384F8343038BD00000000DA
:102B700008B5074B074A196801F03D0199601368D1
:102B80000BB150689847BDE80840FEF769BC00BF2C
:102B900000600240945D0120000000000000000081
:102BA000084B094819688268890901F03D0110B590
:102BB0008C019C600AB1C0689047BDE81040FEF7E8
:102BC0004FBC00BF00600240945D01200000000087
:102BD000084B094819680269090C01F03D0110B55C
:102BE0000C049C600AB140699047BDE81040FEF7B4
:102BF00037BC00BF00600240945D0120000000006F
:102C0000084B094819688269890D01F03D0110B52A
:102C10008C059C600AB1C0699047BDE81040FEF782
:102C20001FBC00BF00600240945D01200000000056
:102C300008B5074B07485968026A01F03D01D960A1
:102C40000AB1406A9047BDE80840FEF709BC00BFE2
:102C500000600240945D01200000000000000000C0
:102C6000084B09485968826A890901F03D0110B58D
:102C70008C01DC600AB1C06A9047BDE81040FEF7E5
:102C8000EFBB00BF00600240945D01200000000027
:102C9000084B09485968026B090C01F03D0110B559
:102CA0000C04DC600AB1406B9047BDE81040FEF7B1
:102CB000D7BB00BF00600240945D0120000000000F
:102CC000084B09485968826B890D01F03D0110B528
:102CD0008C05DC600AB1C06B9047BDE81040FEF780
:102CE000BFBB00BF00600240945D012000000000F7
:102CF00008B5074B07481968026C01F03D0199605F
:102D00000AB1406C9047BDE80840FEF7A9BB00BF80
:102D100000640240945D01200000000000000000FB
:102D2000084B09481968826C890901F03D0110B50A
:102D30008C019C600AB1C06C9047BDE81040FEF762
:102D40008FBB00BF00640240945D012000000000C2
:102D5000084B09481968026D090C01F03D0110B5D6
:102D60000C049C600AB1406D9047BDE81040FEF72E
:102D700077BB00BF00640240945D012000000000AA
:102D8000084B09481968826D890D01F03D0110B5A5
:102D90008C059C600AB1C06D9047BDE81040FEF7FD
:102DA0005FBB00BF00640240945D01200000000092
:102DB00008B5074B07485968026E01F03D01D9601C
:102DC0000AB1406E9047BDE80840FEF749BB00BF1E
:102DD00000640240945D012000000000000000003B
:102DE000084B09485968826E890901F03D0110B508
:102DF0008C01DC600AB1C06E9047BDE81040FEF760
:102E00002FBB00BF00640240945D01200000000061
:102E1000084B09485968026F090C01F03D0110B5D3
:102E20000C04DC600AB1406F9047BDE81040FEF72B
:102E300017BB00BF00640240945D01200000000049
:102E4000084B09485968826F890D01F03D0110B5A2
:102E50008C05DC600AB1C06F9047BDE81040FEF7FA
:102E6000FFBA00BF00640240945D01200000000032
:102E70000D4B30B400220D4D0D4C1A601146134617
:102E8000A858016044F833100133102B02F10C02F2
:102E9000F6D10849084A4FF0FF338B6030BCCB6055
:102EA0009360D360704700BF145E012080560120FC
:102EB000945D0120006002400064024000000000B8
:102EC000F8B5204F467A3D68012404FA06FE1EEA52
:102ED000050F32D11C4C4EEA050504EBC60C15F06B
:102EE000FF0F3D6044F83620CCF8043004D0174C76
:102EF000236B43F40013236315F47F4F17D1056848
:102F00002B6823F01F032B602B6813F00104FBD107
:102F1000077A46683D23BB40212733602C606F61F0
:102F20006AB1807A0901FEF70BFB2046F8BD074C19
:102F3000236B43F480032363E1E72046F8BD10468A
:102F4000F8BD00BF145E0120945D012000380240EE
:102F5000204B21491A694FF0FF300022F0B518616B
:102F60001A615C6958615A611C6A1C4FDFF878E08D
:102F70001B4E1C4D64F080541C621A620724D3F867
:102F800024C058625A62C1F804E08A600C60F96893
:102F900041F08071F960316841F001013160196CD4
:102FA00041F080511964296841F480712960196FDA
:102FB00001F44071B1F5007F03D04FF480311967FF
:102FC0001A67084A536823F400735360BDE8F04061
:102FD000FFF74EBF0038024010E000E0F0ED00E0E7
:102FE000001000E0007000403F9002000000000070
:102FF0003249334B4FF080504FF4404208641A601E
:103000000B6843F001030B600A682C4B9007FBD55B
:103010009A6822F003029A609A689A6019468B684F
:10302000264A13F00C03FAD1116801F0F90111607E
:103030009360136843F48033136011681F4B890356
:10304000FBD55A6F42F001025A675A6F1B4992072B
:10305000FBD51C4B4B600B68194A43F080730B6027
:1030600053685B04FCD515490A68144B9001FBD5E5
:10307000154AC3F884201A6842F080621A601A4622
:1030800011680E4B0901FBD5104A1149996040F2B5
:10309000057111609A6842F002029A601A469368BC
:1030A000064903F00C03082BF9D14B6C43F4804321
:1030B0004B644B6E43F480434B66704700380240CC
:1030C000007000400854400780400030003C02403F
:1030D00000944838000000000000000000000000DC
:1030E00010B5084C2046FEF78BFF0749074A084BEE
:1030F000A162E262236312206021BDE81040FEF766
:103100001FBA00BF185E012000200140E0560120D8
:10311000162C02000000000000000000000000006B
:10312000C16A0A68136823F01F031360136813F061
:103130000103FBD130B40D7A4C68826A3D21A9406D
:1031400001202160536030BC93609060704700BFE5
:103150001A4B1A680021196093062CD510B5184C2B
:10316000E36A1B685B6813B3236903B32046FFF768
:10317000D7FF23699B684BB10522227020460121AD
:1031800098472378052B04BF022323700022226175
:103190000B49202383F31188606928B14FF0FF3376
:1031A00043624A61FEF724FB002383F31188BDE8E4
:1031B0001040FEF755B9FEF753B900BF002001409B
:1031C000185E012000000000000000000000000068
:1031D00001F001038A0748BF43F002034A0748BFD2
:1031E00043F008030A0748BF43F00403CA0648BF78
:1031F00043F010038A0648BF43F020038A050268A3
:1032000048BF43F0400313430360704700000000D1
:1032100038B5202383F31188074C084BE06B002559
:10322000DD6310B1FEF7E4FAE563002383F3118850
:10323000BDE83840FEF714B94C5E0120002C014077
:1032400010B5044C2046FFF79BF80022024BE263C6
:10325000636410BD4C5E012028570120000000006F
:103260000379114A012B10B5026406D00F4B0022DE
:103270001A605A60DA625A6210BD00220446134690
:103280000921406CFFF71CFE636C09491B6807228B
:10329000996031205A619021FEF752F9054A536C2A
:1032A00043F400635364E1E72054A308002C014079
:1032B000802C0140003802400000000000000000A7
:1032C000064B78225A601A6842F003021A605A6864
:1032D00042F480725A600A20FEF712BC002C0140B2
:1032E000024A536823F0FF0353607047002C0140EB
:1032F000024B00225A601A60704700BF002C014048
:10330000084A5368012923F4C05307D003D3022984
:1033100003D143F4805353607047704743F4006314
:1033200053607047002C01400000000000000000C6
:10333000064B41F480619A601846D960436B034A9A
:103340001B06FBD580239363704700BF002C014010
:1033500038B50C4C41F48861A2602546E160696B88
:10336000084A11F04504FAD0946311F0040403D123
:1033700052691A60204638BD3430FFF729FF01201A
:1033800038BD00BF002C014000000000000000001C
:1033900038B50C4C41F48861A2602546E160696B48
:1033A000084A11F04504FAD0946311F0050403D1E2
:1033B00052691A60204638BD3430FFF709FF0120FA
:1033C00038BD00BF002C01400000000000000000DC
:1033D0002DE9F041202304460D46164683F311885B
:1033E000194BDB6B4BBB184B5B6B13F480731FD01B
:1033F000616C0B681A6812F00102FBD191F808E0C9
:103400004F68114911483D2303FA0EF33B6088636E
:103410001346CA6283F31188012D06D9204633462C
:103420000C21BDE8F041FFF7B3BF1046BDE8F081C5
:1034300083F311880120BDE8F081054B9B69C363CC
:103440000220FEF7EDF9CEE7002C0140FF07C00097
:10345000785D012000000000000000000000000076
:103460002DE9F0410646406C184F057AD7F834C074
:1034700090E808403D24AC40CEF800401C6824F0A1
:103480001F040F4615461C601A6812F00104FBD198
:10349000017A0E4BDFF838803D228A40CEF80020BA
:1034A0006146C3F8388006F13400DC63DC62FFF764
:1034B0008FFE012F07D9304622462B460C21BDE84E
:1034C000F041FFF765BFBDE8F08100BF002C01406F
:1034D000FF07C00000000000000000000000000026
:1034E00038B50F4C41F49861A2602546E160696BE4
:1034F0000B4A11F04504FAD0946311F03F0409D14E
:10350000116A1960D1695960916999605269DA60EC
:10351000204638BD3430FFF75BFE012038BD00BFC8
:10352000002C01400000000000000000000000002E
:103530002DE9F041264C274D656282B00F4690463A
:103540001E460546FEF7D4FE10B102B0BDE8F0817C
:103550006B6C2A6C1B68DFF884C0C3F80C807102A6
:10356000880858601A601A689B2042F0010240F2F5
:103570002A3E1A60C4F838C0C4F83CE0A162E06298
:103580002B6BDB0658BF7F0201AC012E3A46234667
:10359000284617D91221FFF7FBFE50B9019A0E4BAE
:1035A000134033B9284631462246FFF711FF002861
:1035B000CBD0284631462246FFF752FF012002B009
:1035C000BDE8F0811121FFF7E3FE0028E6D0F0E727
:1035D000002C0140C027090008E0FFFDFF07C000E4
:1035E0002DE9F041274C284D656282B00F46904688
:1035F0001E460546FEF77CFE10B102B0BDE8F08124
:103600006B6C2A6C1B68DFF888E0C3F80C807102D1
:10361000880842F0400258601A601A6840F21A3076
:1036200042F001021A60C4F838E0E063A1622B6B3B
:10363000DB0658BF7F0201AC012E3A4623462846DE
:103640001AD91921FFF7A4FE68B9019A0F4B13404C
:103650004BB90C4B9922DA62284631462246FFF7D5
:10366000B7FE0028C9D0284631462246FFF7F8FEAB
:10367000012002B0BDE8F0811821FFF789FE002883
:10368000E3D0F0E7002C0140808D5B0008E0FFFDF7
:10369000FF07C00000000000000000000000000064
:1036A000FFF746BF0000000000000000000000001F
:1036B000FFF796BF000000000000000000000000BF
:1036C0000020704700000000000000000000000023
:1036D0002DE9F04FDFF8B481DFF8B4C1D8F830A09D
:1036E000DFF8B0E1634F644E644D654C6549664A4E
:1036F000DFF8A4B140F2FF194AEA090AC8F830A07D
:10370000D8F850A04AEA0909C8F850904368CCF8A4
:1037100004308368CCF80830C368CCF80C300369F7
:10372000CCF814304369CCF820308369CCF82430CD
:103730000368CCF80030036ACEF80430436ACEF850
:103740000830836ACEF80C30C36ACEF81430036BAD
:10375000CEF82030436BCEF82430C369CEF8003069
:10376000C36B7B60036CBB60436CFB60836C7B61F1
:10377000C36C3B62036D7B62836B3B60876D7760DC
:10378000C76DB760076EF760476E7761876E376207
:10379000C76E7762476D3760466F6E60866FAE604A
:1037A000C66FEE60D0F880606E61D0F884602E62E3
:1037B000D0F888606E62066F2E60D0F89050656019
:1037C000D0F89450A560D0F89850E560D0F89C509F
:1037D0006561D0F8A0502562D0F8A4506562D0F899
:1037E0008C502560D0F8AC404C60D0F8B0408C6074
:1037F000D0F8B440CC60D0F8B8404C61D0F8BC40B0
:103800000C62D0F8C0404C62D0F8A8400C60D0F8F0
:10381000C8105160D0F8CC109160D0F8D010D160B1
:10382000D0F8D4105161D0F8D8101162D0F8DC1063
:103830005162D0F8C4101160D0F8E420CBF8042015
:10384000D0F8E820CBF80820D0F8EC20CBF80C20FA
:10385000D0F8F020CBF81420D0F8F420CBF82020BA
:10386000D0F8F820CBF82420D0F8E020CBF80020C6
:10387000BDE8F08F00080240000C0240001002403A
:103880000014024000180240001C024000380240B0
:10389000000002400004024000200240000000003E
:1038A0002DE9F04F4FF00F0C02F0030EC2F380072A
:1038B000C2F3C106C2F341150024C2F3C3124FF094
:1038C00001094FF003082BE0D0F820B02BEA0303E6
:1038D00043EA0A030362436809FA04FA23EA0A0383
:1038E0003B4343604FEA440A836808FA0AFA6FEAE6
:1038F0000A0A0AEA030333438360C3680AEA03033C
:103900002B43C36003680AEA030343EA0E03036020
:10391000490819D07F00B600AD004FEA8E0E013481
:1039200004F007039B0011F0010F02FA03FA0CFAEE
:1039300003F3EDD0072CC7D9D0F824B02BEA03034A
:1039400043EA0A034362C6E7BDE8F08F00000000C7
:103950002DE9F04FAC4BAD499A69066D916185B088
:103960008346202383F311884FF000099BF8003031
:10397000012B05D0DBF85C306BB97369DB060AD428
:10398000B369A14A43F010039269B3610220CBF8F6
:103990006420FDF745FF002383F311889A4673697D
:1039A00013F0100223D0DBF850100B6A03F4F0126E
:1039B000B2F5802F30D0B2F5402FF0D103F00F02D6
:1039C0000BEB8202C3F30A13D26803339B08146A19
:1039D000E5D001F580510222086812B144F8040BC9
:1039E000013A013BF8D1736913F01002DBD10121D8
:1039F000DBF85C3001FA0AF11942029177D10AF141
:103A0000010ADBF854309B685FFA8AFA9A45C6D9F6
:103A1000202383F31188A9E703F00F070BEB870737
:103A2000C3F30A15FB6898690378EBB943688268A9
:103A3000D0F80CE003339A1AEB1C9B084FEA920271
:103A400009D001F58051F4460C6812B14CF8044BD2
:103A5000013A013BF8D10EEB0504C460FB689A699A
:103A600093682B4493609AE7C4683DB301F5805195
:103A700028460328626907D923699A4204D3E36878
:103A8000636103286269F7D8D1F800C04FF0000ED7
:103A900002F101082CFA0EF3C4F8148013702369A4
:103AA00062699A4224BFE3686361013806D0BEF1BF
:103AB000180FDED00EF1080E6269E9E7202383F3C8
:103AC0001188A36820682B44A042A36009D0036832
:103AD00023605C60FDF78CFEC0F824902068A04253
:103AE000F5D1FDF74DFF002383F31188B6E72023BE
:103AF00083F31188DBF85C30B068029920F0010094
:103B000023EA0101B0601346CBF85C1083F31188FF
:103B10000BEB8A031F46DC6862699168536899421F
:103B200080F0B880DBF85000258A4FEA4A140194EF
:103B300004195B1AD4F818199D4228BF1D468BB290
:103B4000B5EB830F0AF1010A2DD803963E46137890
:103B5000002B3BD1EB1C00EB0A3ED0689B0818BF42
:103B6000014605D051F8044BCEF80040013BF9D195
:103B70002844D060F4686269936851682B44994284
:103B8000936040F28480019DDBF85000248A47193D
:103B9000CD1AD7F81839A54228BF25469BB2B5EBF8
:103BA000830FD4D9039E0022202383F31188B368A6
:103BB00043F00103B3602AB9D6F83438029A1A43A5
:103BC000C6F83428002383F311881AE700EB0A3E75
:103BD000D4680DB3D4F810C02A46930835D1A36930
:103BE000002108465F1CA7611B78674503FA01F3B3
:103BF00040EA030024BFE368A361013A08D0182912
:103C000006D00831A369EDE7785D01205057012007
:103C1000CEF80000002AE0D1202383F31188A368A6
:103C200020682B44A042A36009D0036823605C6035
:103C3000FDF7DEFDC0F824902068A042F5D1FDF725
:103C40009FFE002383F3118894E7A069BCEB000179
:103C500048BF033189108B4228BF0B464FEA8308C7
:103C6000C8EB02023BB1014651F8047BCEF800706C
:103C7000013BF9D140448445A06104D8E368A361C5
:103C8000002AAAD1C8E7002AC6D00346A8E7039EA7
:103C9000012289E70AF1010AFAE700BF00000000EB
:103CA000F0B50024D1F808E025464FF0804C4FF0E5
:103CB000FF3714E0C1F80059C218C2F81059C2F811
:103CC0000879D1F8006B002E17DBC1F8005B0344C4
:103CD0000134A645C3F8105BC3F8087B14D3630115
:103CE000C118D1F80029002AE4DAC1F800C90E464B
:103CF000D6F808299207FBD5DEE7C1F800CBD2F849
:103D0000081BC906FBD5E2E74FF00113C0F81C38C9
:103D1000F0BD00BF00000000000000000000000037
:103D200010B5064C2046FEF7EBFB4FF0A043044ACB
:103D30002365002362652366636610BD985E0120DB
:103D400040570120000000000000000000000000BB
:103D500070B50378066D012B82B001D002B070BD42
:103D60002E4B9842054649D02B6E0022EA65002B67
:103D700038D02B4BF3602B492C6DC6F800184FF44C
:103D800034130022C6F8002E2020B363FEF718F982
:103D9000012323612369DB07FCD40C20FEF710F913
:103DA0002369002BFCDA0024B460286D696DFFF7ED
:103DB00077FF6B68C6F81048DB68C6F81448C6F889
:103DC0001C485BB143F20803B3614FF0FF337361EA
:103DD000B36843F00103B36002B070BD4FF44053C9
:103DE000B361F2E7009505F168004FF4E871022233
:103DF0000D4BFDF70DFE68662866BAE70B4B5A6B54
:103E000042F080025A635A69002142F080025A61EE
:103E100043205961E021FDF793FBA5E7985E01205F
:103E200040140040030020025139012000380240B4
:103E300038B50378056D012B0DD004462846616D19
:103E4000FFF72EFF094A00239442E365C5F81C38AA
:103E5000AB60AB6300D038BD4320FDF799FB044A4B
:103E6000536B23F080035363F5E700BF985E012096
:103E700000380240000000000000000000000000C8
:103E8000F8B5056D202307462B612B6913F020043C
:103E9000FBD10C20FEF794F8D7F854E0DEF8086068
:103EA00023464FF00060FF2105EB43120133B3427C
:103EB000C2F80009C2F8000BC2F80819C2F8081BC2
:103EC000F2D9DEF800304FF0FF324FF00111C5F8A3
:103ED00018283A6DC5F81C18BB65DEF800306B6217
:103EE00010231361136913F01004FBD10C20FEF7AB
:103EF00067F8D5F80038114A114823F4FE63C5F875
:103F00000038AB6943F4402343F010030921AB614F
:103F1000C5F81018C5F81418F860C5F8104BC5F8A6
:103F2000002BC5F81049C5F80029BB6D03F110023C
:103F300043F48013BA65AB62F8BD00BF4080001047
:103F40006057012000000000000000000000000099
:103F5000026D90F84E10D2F8003823F4FE6343EA65
:103F60000113C2F800387047000000000000000094
:103F70002DE9F0410FFA81F800EB88070D46FB6848
:103F8000046D1A6802F00302022A5CD0032A5CD096
:103F90004A4E4B49012A18BF0E466A01D96804EB04
:103FA000020E4FF0000CCEF810CB002971D0B3F800
:103FB00012E005F15801490146EA0E0E44F801E00D
:103FC00005F1100CD4F81C184FF0010E0EFA0CFE7F
:103FD0004EEA0101C4F81C18224499684FF0000E03
:103FE000C2F810E999B3998B1A8A01294FEA920312
:103FF00088BF4B4305F13F0E816D04EB8E0EAA0185
:1040000003EB010C42F0200241EA0343C0F858C020
:10401000CEF80430226123699A06FCD40C20FDF707
:10402000CFFFFB681A8A05F148035B0142EA85521B
:104030003243E2500123D4F81C28AB401343C4F8A8
:104040001C38BDE8F0811F4EA7E71F4EA5E705F11C
:104050003F0204EB8202AB011C49516043F0200394
:10406000236123699B06FCD404EB48180C20FDF760
:10407000A7FFD8F8002922F40042C8F80029D4F894
:104080001C280123AB4022EA0303C4F81C38BDE816
:10409000F08104EB481105F1100CD1F800EB2EF47F
:1040A000004EC1F800EBD4F81C184FF0010E0EFAC8
:1040B0000CFE21EA0E01C4F81C188DE700800410E4
:1040C000008000100080081000800C100004000226
:1040D0005831036D49015B5813F4004004D013F4C8
:1040E000001F14BF01200220704700BF0000000025
:1040F0004831036D49015B5813F4004004D013F4B8
:10410000001F14BF01200220704700BF0000000004
:1041100000EB8101CB681B6A19685B685360116012
:10412000704700BF00000000000000000000000019
:1041300000EB810330B4DD68AC696368236131B999
:10414000402B04D940236360094A3F2402E05C1EEF
:1041500043F0C042006D6D8A00EB41116319B3FB5F
:10416000F5F342EAC343C1F8103B30BC704700BFCF
:10417000400000600000000000000000000000009F
:104180002DE9F041264E376D07EB40130546D3F875
:10419000084BC3F8084B200703D5D7F81438190784
:1041A0001DD4E20719D5D7F81438DB0715D506EB6F
:1041B00085061B4CF1688B6958681A69904216D3C2
:1041C0006289CE680123AB4022EA0303638129465A
:1041D00020463346BDE8F0411847BDE8F08106EBC4
:1041E00085033046DB6829465B689847D9E7121A91
:1041F00000265A609E6020462946FFF799FF20233B
:1042000083F31188236D03EB45153346D5F8002B56
:1042100042F08062C5F8002B83F31188BDE8F0817D
:10422000985E012000000000000000000000000077
:1042300000EB810310B4DC68626953681361ABB1B1
:1042400071B15A1E006D248A00EB41112244B2FB69
:10425000F4F243EAC243C1F810395DF8044B7047E9
:10426000402BEED9402353603F22EBE7036D5DF80E
:10427000044B03EB41114FF40023C1F81039704790
:104280002DE9F041314D2E6D06EB40130746D3F872
:104290000849C3F80849E10703D5D6F81038DA070A
:1042A0001FD423061BD50122D6F83438BA401A424F
:1042B00015D0202383F31188E96DD6F83438686E61
:1042C000224C114323EA0202E965C6F8342818B1EA
:1042D000FDF78EFA00236366002383F31188BDE89F
:1042E000F08105EB8003D9684B6958681A699042E0
:1042F00020D2121A4FF000085A60C3F808802846EE
:104300003946FFF795FF202383F311882A6D02EBCE
:1043100047100121D0F8003943F00443C0F80039B8
:10432000D2F83438B9401943C2F83418434683F3FD
:104330001188B6E72A89D1F808C00123BB4022EAD8
:1043400003032B8128463946E047AAE7985E0120FF
:1043500070B53B4D2E6D7369B4691C40E004746107
:104360003ED4A10448BFD6F80838220704D56B68AC
:10437000DB680BB132489847E30610D5202383F35E
:104380001188B369686E2E4D23F01003B36118B124
:10439000FDF72EFA00236B66002383F31188600378
:1043A000D6F8185807D5E90736D4AA0739D46B07C9
:1043B0003CD42E073FD4240307D5E80321D4A90316
:1043C00024D46A0317D42B0303D4BDE87040FDF74F
:1043D00047B80320FFF7D4FEBDE87040FDF740B8B2
:1043E0002846FEF755F96B681B68002BB9D02846A4
:1043F00000219847B5E70220FFF7C2FE2B03E4D562
:10440000E7E70020FFF7BCFEA903DAD50120FFF79C
:10441000B7FE6A03D7D5EEE70020FFF731FFAA0702
:10442000C5D50120FFF72CFF6B07C2D50220FFF78F
:1044300027FF2E07BFD50320FFF722FFBBE700BFF2
:10444000985E012000000000000000000000000055
:10445000036D03EB4111D1F8003B43F08063C1F8D9
:10446000003B70470000000000000000000000005A
:10447000036D10B403EB41140122D4F8000940F09D
:104480000440C4F80009D3F834085DF8044B8A40AE
:104490000243C3F834287047000000000000000009
:1044A000036D03EB4111D1F8003B43F40013C1F855
:1044B000003B70470000000000000000000000000A
:1044C000036D03EB4111D1F8003943F40013C1F837
:1044D00000397047000000000000000000000000EC
:1044E000036D03EB4111D1F8003B23F40013C1F835
:1044F000003B7047000000000000000000000000CA
:10450000036D03EB4111D1F8003923F40013C1F816
:1045100000397047000000000000000000000000AB
:1045200070B5114E114B124C124D4FF6FF723046C2
:104530001A80FDF7D5FF1049104A114BF161204652
:1045400005F10C0135627162B262F362FDF7C8FFDA
:104550000C490D4A0D4BE161A5F17801243D216222
:104560006562A262E36270BDF0600120EC60012030
:1045700020610120F856012000300140160001069C
:1045800046000106003C0040160003004600030000
:10459000026970B51469D368DBB21C40E343A60717
:1045A000054613611DD4600716D421070FD4E20617
:1045B00008D4E30700D470BD6B6828469B68BDE84B
:1045C000704018476B6828469B6A9847F1E76B680C
:1045D00028461B6A9847EAE76B6828469B69984714
:1045E000E3E743681B699847DDE700BF0000000070
:1045F00008B50648064A43686FF001019B681161DF
:104600009847BDE80840FCF72BBF00BF5061012070
:104610000000014000000000000000000000000059
:10462000134B10B51A69DC681440A4B2E2B2D2434D
:10463000A0071A6117D4610710D4220709D4E30632
:1046400003D50C4843689B6A9847BDE81040FCF7C7
:1046500007BF084843681B6A9847F0E70548436866
:104660009B699847E9E7034843681B699847E2E775
:104670000000014050610120000000000000000027
:1046800008B50348FFF784FFBDE80840FCF7E8BE23
:104690006461012000000000000000000000000034
:1046A00008B50348FFF774FFBDE80840FCF7D8BE23
:1046B0007861012000000000000000000000000000
:1046C00008B50348FFF764FFBDE80840FCF7C8BE23
:1046D0008C610120000000000000000000000000CC
:1046E00008B50348FFF754FFBDE80840FCF7B8BE23
:1046F000A061012000000000000000000000000098
:1047000008B50648064A43686FF001019B681161CD
:104710009847BDE80840FCF7A3BE00BFB461012084
:104720000004014000000000000000000000000044
:10473000134B10B51A69DC681440A4B2E2B2D2433C
:10474000A0071A6117D4610710D4220709D4E30621
:1047500003D50C4843689B6A9847BDE81040FCF7B6
:104760007FBE084843681B6A9847F0E705484368DE
:104770009B699847E9E7034843681B699847E2E764
:1047800000040140B46101200000000000000000AE
:104790002DE9F843DFF87890DFF87880134F144E56
:1047A000144D154C4846FDF76BFC144BC9F81030FE
:1047B0004046FDF765FC4FF080433846C8F810309E
:1047C000FDF75EFC0E4B3B613046FDF759FC0D4B8F
:1047D00033612846FDF754FC0B4B2B612046FDF757
:1047E0004FFC0A4B2361BDE8F88300BF78610120CC
:1047F0008C610120A0610120B46101200000014012
:104800000004004000080040000C0040000401408B
:1048100050610120646101200000000000000000E0
:10482000034A93899BB243F080039381704700BF92
:104830000010014000000000000000000000000027
:10484000034A93899BB243F080039381704700BF72
:1048500000440040000000000000000000000000D4
:10486000034A93899BB243F080039381704700BF52
:1048700000480040000000000000000000000000B0
:10488000034A93899BB243F080039381704700BF32
:1048900000140140000000000000000000000000C3
:1048A0002DE9F041D0F89450AF892C88A4B2E205EC
:1048B0000646BFB252D4202383F3118814F02F0F81
:1048C0002ED006F1040808E0A988A00689B21ED4FB
:1048D0002C88A4B214F02F0F22D02307F4D014F0A8
:1048E000080F0CBF00218021E00748BF41F02001E4
:1048F000A20748BF41F04001630748BF41F48071FF
:104900004046FDF7A5F9A988A00689B2E0D5C9B24D
:104910003046FDF7BDFD2C88A4B214F02F0FDCD17A
:10492000002383F31188390601D5220625D46306B6
:1049300012D5202383F31188726CB36C9A422BD06A
:1049400027F04007BFB24FF6BF72AF8100232A8025
:1049500083F31188BDE8F081BDE8F081202383F363
:1049600011884FF400710430FDF772F9002383F3CE
:1049700011884FF6FF632B809DE7202383F3118876
:1049800006F13000FDF794FA00280DDB80B2A88014
:10499000002383F31188CAE7B36B002BD0D0301DFE
:1049A0001021FDF755F9CBE7301D0821FDF750F92F
:1049B00027F0C00343F04003AB81E9E700000000AB
:1049C00008B50348FFF76CFFBDE80840FCF748BD99
:1049D000C86101200000000000000000000000008D
:1049E00008B50348FFF75CFFBDE80840FCF738BD99
:1049F00060620120000000000000000000000000D4
:104A000008B50348FFF74CFFBDE80840FCF728BD98
:104A1000F86201200000000000000000000000001B
:104A200008B50348FFF73CFFBDE80840FCF718BD98
:104A30009063012000000000000000000000000062
:104A4000F8B5124F124E134A134D144C384600213C
:104A5000FDF7FEFC124B134AC7F894303046002194
:104A6000FDF7F6FC104B114AC6F894302846002199
:104A7000FDF7EEFC0E4B0F4AC5F89430204600219E
:104A8000FDF7E6FC0C4BC4F89430F8BDC86101207A
:104A90006062012021480120F8620120906301201A
:104AA00000100140414801200044004061480120BD
:104AB000004800408148012000140140000000002F
:104AC00038B5124B124D1A69124900244FF0FF32CB
:104AD0001A611C6158695A615C61186A1A621C6229
:104AE0005A6A62F080525A624FF000505C624FF492
:104AF0000072AC61FCF7CCFB074A136843F0030378
:104B00001360BDE83840FEF773BA00BF00380240BA
:104B100000000440105A012000380140000000004D
:104B200001207047000000000000000000000000AD
:104B3000002070470000000000000000000000009E
:104B4000704700BF000000000000000000000000EF
:104B5000704700BF000000000000000000000000DF
:104B600008B5202383F3118800EB8100C069C36876
:104B7000002B03DD002383F3118808BD0430FDF70B
:104B80001FF8002383F3118808BD00BF0000000058
:104B900038B50568134604460A462868297AFDF7A1
:104BA00017FD202383F311882368197A1868FDF70D
:104BB00037FD002383F3118838BD00BF00000000DB
:104BC00038B50568134604460A462868297AFDF771
:104BD000EFFC202383F311882368197A1868FDF706
:104BE00007FD002383F3118838BD00BF00000000DB
:104BF00010B503680C4A197A04461868FDF7B8FC2A
:104C0000E368002B06DD04F114000021BDE810402C
:104C1000FDF71EB8201DFCF7D3FF04F1140000219E
:104C2000BDE81040FDF714B8A058012000000000B6
:104C300090F8441001F07F03212B024601D00020A0
:104C4000704790F8490092F8483043EA00231BB2BD
:104C5000002BF4D192F84500FE2814D0FF2814D17F
:104C6000080612D492F84B0092F84A1051EA00213B
:104C70000BD192F8471092F8463053EA01230CBF4B
:104C8000012000207047090601D41846704792F8A9
:104C90004B0092F84A1041EA002000B20128F4D1FA
:104CA00010B492F8474092F8461041EA042109B244
:104CB00031B9044BD063116493635DF8044B7047C2
:104CC0001846FAE7A8690120000000000000000073
:104CD00010B590F83530DB0782B004460ED590F859
:104CE0003630802B14D000200522242384F8532052
:104CF00084F85D3084F85E0002B010BD00F16301FD
:104D00002422FFF745FF012084F8870002B010BD80
:104D100002A9302301F8043D0122FFF739FF0120E9
:104D200084F8870002B010BD000000000000000001
:104D300010B500F1510104461222FFF729FF0123AB
:104D400084F88730202383F31188201DFCF718FF97
:104D5000002383F31188184610BD00BF0000000037
:104D600070B5036AC269074D013B04461BBA16BA07
:104D70002946082285E84800FFF70AFF012084F849
:104D8000870070BDA0690120000000000000000045
:104D90002DE9F04F90F834302A2B83B0044660D0D0
:104DA000D0F83650B0F83B70036A2DBA7FBA9D42F6
:104DB000BFB244D223686D4A5868036829461E6909
:104DC0000123B047002849D18FB3DFF8A091013506
:104DD0000646CB4607F1FF3A06F0010109EB4121F7
:104DE000E26906F101082046FFF7D2FE08F0010251
:104DF000564529460BEB42224FF0010309DA2068A1
:104E0000406806683669B04701350646002840F01C
:104E10009280202383F31188201DFCF7B1FE00232C
:104E200083F311881FFA88F39F424646D4D80123A2
:104E300084F887300026304603B0BDE8F08F0522A5
:104E400021230026304684F8532084F85D3084F80E
:104E50005E6084F8876003B0BDE8F08F0322112301
:104E6000EFE70368586803685B68984706460028C0
:104E700078D1D4F83650B4F83B70236A2DBA7FBA93
:104E80009D42BFB2DBD294F834302A2B92D1204617
:104E90003649E269FFF794FE202383F31188231D2E
:104EA00018460193FCF76CFE334683F31188002FFC
:104EB000BDD0DFF8B89007F1FF3BB046B24610E036
:104EC00020684068D0F800E0DEF814C0E047002811
:104ED0003DD108F101081FFA88FA574505F101058F
:104EE000A5D90AF00102D845294609EB42224FF024
:104EF0000103E5DA984408EA030109EB4121204661
:104F0000E269FFF75DFE2368586803680AF0010252
:104F1000D3F814C009EB422229460123E047824618
:104F2000A8B9202383F311880198FCF729FE534682
:104F300083F31188CFE700230321112284F8531053
:104F400084F85D2084F85E3084F8873073E70322AC
:104F5000002384F8532084F85D2084F85E3084F8C0
:104F6000873068E7072227236BE700BFAC69012081
:104F700070B5C169046A0A0601F47F4342F0020277
:104F800084B042EA032201F47F03012542EA13239D
:104F900024BA01A90C2206468DF807500393029407
:104FA000FFF7F6FD284686F8875004B070BD00BFB5
:104FB000036810B50446586803681B68984758B9D9
:104FC00002223A2384F85E0084F8532084F85D308E
:104FD00084F88700002010BD012384F8873000206A
:104FE00010BD00BF00000000000000000000000035
:104FF000F8B5AF4BD0F8252000219A42044680F83E
:10500000241046D190F83230002B42D1D0F82D3008
:105010001BB190F83120D2063BD194F83320013AED
:105020000F2A36D894F834202F2A00F20A81DFE8BC
:1050300012F0B6000801080183004F0008010801C2
:105040000801080108010801080108010801080118
:10505000080108010801030108010801080108010D
:10506000080108010801EB0042000801D5004F00CB
:105070000801080108010801C0000801BB0008017F
:105080000801C5000801C500080108010801080160
:105090004F00202383F311882368197A1868FDF7DD
:1050A000D7FA2368197A1868FDF7E2FA002383F328
:1050B00011881846F8BD94F8385005F00305022D04
:1050C00006D104F118000021FCF7D2FD84F8245029
:1050D000012384F8873094F887200023114684F850
:1050E000533084F85D3084F85E3084F82D3084F8D5
:1050F0002E3084F82F3084F8303004F14407002A31
:105100004AD04FF0550E5320D4F8295084F845006A
:1051100082F00102422684F8502084F84700E364BC
:105120002046394684F844E084F84660A5640D22A0
:10513000FFF72EFD0120F8BD2046FFF7F9FD0546DB
:1051400094F88710002900F09180002384F85330F0
:1051500084F85D3084F85E3084F82D3084F82E3089
:1051600084F82F3084F83030002D00F09C8020230C
:1051700083F31188201DFCF703FD002383F31188BE
:1051800094F88720D4F82D3004F14407002AB8D1D0
:10519000002B73D194F887100A460023B1E720460C
:1051A000FFF706FF0546CBE72046FFF7D9FD05468A
:1051B000C6E72046FFF7DCFE0546C1E72368DB684B
:1051C0000BB1012098472046FFF7E2FD2368DB681A
:1051D0000546002BB4D000209847B1E794F835205D
:1051E00002F0040202F0FF01002A7FF471AF0520F3
:1051F000242284F85E1084F8871084F8530084F821
:105200005D2004F14407C3E7042220462949FFF743
:10521000BFFC0023012284F8872084F8533084F8EF
:105220005D3084F85E3084F82D3084F82E3084F8B8
:105230002F3084F830309AE72046FFF749FD0546C5
:105240007EE705222023002584F8532084F85D3072
:1052500084F85E5083F311882368197A1868FDF783
:1052600007FA2B4683F311882846F8BD002D7FF4FA
:105270007EAF04F14407D4F82D3089E7202383F36F
:1052800011882368197A1868FDF7E2F92368197AFA
:105290001868FDF7EDF9002383F3118894F887204F
:1052A000D4F82D302DE70A462B4604F1440728E7B1
:1052B00055534243BC5B0120000000000000000089
:1052C0002DE9F041214D224AAB6904469A61202321
:1052D00083F31188061D3046FCF752FC002383F34C
:1052E00011884FF0010804F12507AB695B7F5B076C
:1052F00012D494F82430012B22D010D3022BFAD1EF
:1053000023681868026D936B23F400239363FDF701
:105310001FF90020FCF724FC0020BDE8F0812046A6
:1053200039461F22FFF74CFC84F82480202383F3A6
:1053300011883046FCF724FC002383F31188D4E75E
:105340002046FFF755FE0028CFD0EFE7785D01201B
:105350009058012000000000000000000000000044
:10536000F8B500F11402002400F11803836105462A
:1053700042610460046180F8244021460430FCF757
:10538000F7FB214605F1500305F1620003F8011F08
:1053900083424FF00002F9D170270A2680240420AE
:1053A0000221202385F8632085F8682085F869208C
:1053B00085F86A2085F8517085F8586085F8644052
:1053C00085F8650085F8661085F86730F8BD00BF80
:1053D000F0B5064640F86A1B83B00D4601F10F0296
:1053E00001F1170312F8011F00F8011F9A42F9D1C9
:1053F00006F1720205F1270013F8011F02F8011FE0
:105400008342F9D195F8283086F8833095F8293011
:1054100086F8843095F82A3086F8853095F82B3058
:1054200086F88630002386F8243015246B681A79B4
:10543000052A4FF0320008D0FCF762FB013CF5D1A1
:105440004FF0FF33184603B0F0BD1A6806F11C0197
:105450001846D36998472F682A7A0A4B0A4807EBFF
:1054600082024FF4AA61D6612C7A0A34402247F8AE
:1054700024600096FCF704FB00233061184603B05B
:10548000F0BD00BFC15201205064012000000000A7
:10549000BFF34F8F0449054BCA6802F4E06213431F
:1054A000CB60BFF34F8FFEE700ED00E00400FA058C
:1054B000022906D0032906D001290B4818BF002075
:1054C00070470A487047032A0BD8DFE802F0020849
:1054D0000604074870470748704707487047074861
:1054E00070470020704700BF005A0120105901206A
:1054F000D0590120C0590120D058012070590120F5
:10550000034B402208B95A8370471A83704700BF83
:105510000018024000000000000000000000000031
:10552000022900D0704708B5202383F3118803486F
:10553000FFF75EFB002383F3118808BDAC6D0120EB
:1055400070B4840746D0541E002A41D0CDB2034621
:1055500002E0621EE4B3144603F8015B9A07F8D137
:10556000032C2ED9CDB245EA05250F2C45EA054579
:1055700019D903F110022646103E0F2E42F8105C96
:1055800042F80C5C42F8085C42F8045C02F110023C
:10559000F2D8A4F1100222F00F0204F00F0410322E
:1055A000032C13440DD91E462246043A032A46F81A
:1055B000045BFAD8221F22F003020432134404F0E1
:1055C00003042CB1C9B21C4403F8011BA342FBD154
:1055D00070BC704714460346C2E700BF00000000DD
:1055E00069646C650000000000000000000000001D
:1055F0006D61696E00168911040444080C101418BA
:10560000001C1D001E200000000000000000000023
:10561000214B0120314B0120B120012031230120F9
:1056200071220120A1220120D122012091200120FC
:10563000F1230120D1230120312401201124012054
:105640002124012001240120E1230120C123012084
:10565000000000000000000000000000000000004A
:10566000000000000000000000000000000000003A
:105670000100000000000000000000000000000029
:10568000106002400860024000000B0028600240E9
:105690000860024006010C004060024008600240C1
:1056A00010020D00586002400860024016030E0010
:1056B000706002400C60024000040F0088600240ED
:1056C0000C60024006051000A06002400C60024021
:1056D00010061100B86002400C60024016072F004F
:1056E0001064024008640240000838002864024048
:1056F0000864024006093900406402400864024020
:10570000100A3A005864024008640240160B3B003D
:10571000706402400C640240000C3C00886402404B
:105720000C640240060D4400A06402400C64024078
:10573000100E4500B86402400C640240160F46008B
:105740008000000040010000030000000000000095
:105750007573625F6C6C645F70756D700000000043
:1057600000000000C1260120212A0120F12A012089
:1057700040004000D0600120D06001200100000006
:10578000E4600120000000000000000000000000B4
:105790000000802A00000000FFFFFFFF0000000063
:1057A000FFFF00000000000000A00A000000A000B1
:1057B000000C0000BFFEFFFF95420555FFFF0000F3
:1057C0000000000000440000A200200200000000D1
:1057D000FFFFFFFF04154554FFFF00000CCC000045
:1057E000000606000A012AA400000000FFEBFFFFEC
:1057F00050644001FFCF0000CC000000CC0C00CC76
:105800004A80AAAA00000000FFFFFFFF000000007E
:10581000FFFF0000CC0000C0CCCCCCCCAA0AB0AAC0
:1058200000000000FFFFFFFF00000000FFFF00007E
:10583000CCCCCC0000C0CCCC2A0A028000000000F6
:10584000FFFFFFFF00000004FFFF0000CC0CCC00B6
:105850000C0000C00000000000000000FFFFFFFF80
:1058600000000000FFFF000000000000000000003A
:105870000000000000000000FFFFFFFF000000002C
:10588000FFFF00000000000000000000000000001A
:105890005553422D4D53440000000000000000000D
:1058A0000200000000000000614B0120614B01205C
:1058B00040004000286401203C64012001000000F9
:1058C00000000000000000000000000000000000D8
:1058D00016000000A0590120000000000000000098
:1058E0001A0330003000300030003000300030004B
:1058F00030003000300030003100000000000000B7
:1059000010034B0073006F006C006F00740069009F
:1059100020000000E059012000000000000000000D
:105920000403090400000000000000000000000063
:1059300021550120B1540120314C0120000000000C
:10594000985E01204C5E01200100000001550120FD
:1059500041786F6C6F746900436172647265616451
:105960006572000000000000302E310000000000D1
:10597000100000000059012000000000000000009D
:105980001201000200000040C016430400010102A1
:105990000301000000000000000000000000000003
:1059A000160343006100720064007200650061002C
:1059B00064006500720000000000000000000000AC
:1059C0001A000000E0580120000000000000000064
:1059D0000400000020590120000000000000000029
:1059E00009022000010100C032090400000208067B
:1059F000500007050102400005070581024000052F
:085A0000120000008059012092
:105A10000004001001100120F1130120F1130120F6
:105A2000F1130120F1130120F1130120F1130120E2
:105A3000F1130120F1130120F113012011140120B1
:105A4000F1130120F1130120F1130120F1140120C1
:105A5000F1130120F1130120F1130120F1130120B2
:105A6000F1130120F1130120F1130120F1130120A2
:105A7000F1130120F1130120F1130120712B0120FA
:105A8000A12B0120D12B0120012C0120312C012040
:105A9000612C0120912C012051310120F1130120B2
:105AA000F1130120F1130120F1130120F113012062
:105AB000F1130120F1450120F113012021460120BD
:105AC00081460120A1460120C1460120F113012099
:105AD000F1130120F1130120F1130120F113012032
:105AE000F1130120C1490120E1490120014A0120AF
:105AF000F1130120F1130120F1130120F113012012
:105B000001470120F113012031470120C12C012060
:105B1000F113012011320120E1460120F11301208F
:105B2000F1130120F1130120F1130120F1130120E1
:105B3000F12C0120212D0120512D0120812D01204A
:105B4000B12D0120F1130120F1130120F1130120E7
:105B5000F1130120F1130120F11301205143012021
:105B6000E12D0120112E0120412E0120214A01208A
:105B7000F1130120F1130120F1130120F113012091
:105B8000F1130120514B0120F1130120F1130120E9
:105B9000F1130120F1130120F1130120F113012071
:105BA000F1130120F1130120F1130120F113012061
:0C5BB000F1130120F1130120F11301207A
:045BBC0003000000E2
:0400000520011001C5
:00000001FF
