:020000021000EC
:1010000072B6374880F30988364A374913684FF07B
:10101000404443F4700313600C600023E1EE103A87
:1010200006228B6082F31488BFF36F8F2F4B304AF8
:1010300093420BD2D9430A4422F0030204321A44E9
:101040004FF0553143F8041B9342FBD1294B8342A7
:101050000CD2294A191D521A22F0030204321A44F2
:101060004FF0553143F8041B9342FBD101F0A0FE31
:10107000224A234B9A420CD2D043184420F003005A
:10108000204B0430184453F8041B42F8041B8342DD
:10109000F9D11D4B1D4A93420AD2D9430A4422F08A
:1010A000030204321A44002143F8041B9342FBD18B
:1010B000174D184C00F0B4F9AC4204D254F8043B7C
:1010C0009847AC42FAD3144D144C00F029F8AC42C6
:1010D00004D254F8043B9847AC42FAD300F0A8F984
:1010E0000004001088ED00E034EF00E00000001084
:1010F0000002001000020010030400105C37010021
:101100005C3701005C37010060370100283D0100B9
:10111000FC340100FC340100FC340100FC3401000B
:101120002DE9F04F91B001F0EBFF5C4C00F070FE48
:101130005B484FF40061002201F012FB58484FF465
:101140008051002201F00CFB20464021012201F0D9
:1011500007FB402121835348012201F001FB00F0ED
:1011600067FA01F0CDFF01F013FF102268464FF43B
:10117000A02101F015FF01F0C3FF4FF040431A78A2
:10118000662A02D0012002F093F8474A12786C2AAE
:10119000F8D1464A1278612AF4D1454A1278732A66
:1011A000F0D1444A1278632AECD1434A12786F2A6C
:1011B000E8D1424A1278702AE4D1414A1278792A59
:1011C000E0D19D68DC68B5F5801F02D9022002F0ED
:1011D0006FF83C48294601F003FFA042064602D0C2
:1011E000032002F065F8384B3849394A2D4F5960D1
:1011F00000245A604FF04008204601F039FF0134C6
:10120000C7F81880642000F03BFC4FF480030C2CDE
:10121000BB61F1D12B48294601F0E2FE864229D17B
:10122000EF1CBF082B4BDFF8A090DFF878804FF061
:10123000000B4FF0400A11E003F1904059680C3860
:101240001C1D01F025FFD9F80C300BB1D9F80C307A
:10125000CBF30B038BB10BF1010B2346BB45EBD159
:1012600029464FF0006001F0BBFE86420FD00520FA
:1012700002F01EF8042002F01BF8C8F818A0642041
:1012800000F0FEFB4FF48003C8F81830E3E74FF49A
:101290007A7000F0F5FB01F0FBFF00BF0018024080
:1012A0000000024000080240010000C0020000C02F
:1012B000030000C0040000C0050000C0060000C01C
:1012C000070000C0100000C0003C02402301674539
:1012D000AB89EFCD0C0000C0000000000000000052
:1012E000844641EA000313F003036DD1403A41D331
:1012F00051F8043B40F8043B51F8043B40F8043BF0
:1013000051F8043B40F8043B51F8043B40F8043BDF
:1013100051F8043B40F8043B51F8043B40F8043BCF
:1013200051F8043B40F8043B51F8043B40F8043BBF
:1013300051F8043B40F8043B51F8043B40F8043BAF
:1013400051F8043B40F8043B51F8043B40F8043B9F
:1013500051F8043B40F8043B51F8043B40F8043B8F
:1013600051F8043B40F8043B51F8043B40F8043B7F
:10137000403ABDD2303211D351F8043B40F8043B1F
:1013800051F8043B40F8043B51F8043B40F8043B5F
:1013900051F8043B40F8043B103AEDD20C3205D32F
:1013A00051F8043B40F8043B043AF9D2043208D027
:1013B000D2071CBF11F8013B00F8013B01D30B8899
:1013C00003806046704700BF082A13D38B078DD077
:1013D00010F003038AD0C3F10403D21ADB071CBF49
:1013E00011F8013B00F8013B80D331F8023B20F8B3
:1013F000023B7BE7043AD9D3013A11F8013B00F8EC
:10140000013BF9D20B7803704B7843708B78837073
:10141000604670470000000000000000000000006F
:10142000704700BF00000000000000000000000046
:10143000FEE700BF00000000000000000000000008
:10144000FEE700BF000000000000000000000000F8
:1014500000F09EFA00DF00BF000000000000000066
:10146000064A536823F001035360EFF3098368339E
:1014700083F30988002383F31188704730EF00E07D
:1014800008B5094B094A002199600720DA6010214C
:1014900000F0A6F80A20202100F0A2F80B208021FD
:1014A000BDE8084000F09CB800ED00E00003FA053C
:1014B000202383F311881A4B5B6813F400631FD059
:1014C000F1EE10FAEFF30983164A4FF08071D268FB
:1014D00043F8082C43F84C1CA3F1680282F30988F6
:1014E00011498A69907F70B10868916882688A4260
:1014F00094BF002201227AB10C4A43F8502C704765
:1015000083F3118870470868916882688A4234BF03
:1015100000220122002AEFD1054A43F8502C7047DF
:1015200000ED00E030EF00E0183901005114010037
:101530005414010000000000000000000000000042
:1015400008B5202383F3118800F0A2F8002383F369
:101550001188BDE80840FFF7ABBF00BF00000000E6
:101560002DE9F04F2DED108AC1F80CD0D0F80CD039
:10157000BDEC108ABDE8F08F000000000000000004
:10158000002383F311882846A04700F0A9FA70478A
:1015900020F0030202F1604202F5614270B4430997
:1015A00000F00304D2F80053E400FF269B00A6409D
:1015B00003F16043A14025EA060503F561430124D8
:1015C00000F01F0004FA00F02943C2F8001370BCB9
:1015D000C3F88001186070470000000000000000A0
:1015E00020F0030303F1604303F56D4300F00300B3
:1015F00010B4C0009A69FF24844022EA04028140AA
:10160000114399615DF8044B704700BF0000000072
:10161000024B034A9B699A61FEE700BF183901003B
:10162000F032010000000000000000000000000097
:1016300000B583B0FFF724FF00F0D2F800F058F8AF
:1016400040210C4800F0B4F90B490122886102776F
:10165000002383F3118862B6896908488861009382
:101660004FF4B071064B074800F0CAF903B05DF8BB
:1016700004FB00BF6037010018390100003301008E
:1016800011160100A8370100000000000000000052
:1016900070B5134B9B699A7F0AB1013A9A771A6A1F
:1016A000104C01321A62E36822680133A242E360FF
:1016B00014D09668013E966086B91168D56821609D
:1016C000D66000234C6083F311881069A84720235B
:1016D00083F3118822689368002BEED070BD00BFA1
:1016E0001839010008390100000000000000000066
:1016F000044B4FF0FF3100225B601B609960DA60A1
:10170000704700BF08390100000000000000000021
:1017100070B40C4E3468A5680361A942C26004D954
:101720002468491BA5688D42FAD363684360B442BC
:10173000046060601860816002D0A368591AA160DB
:1017400070BC704708390100000000000000000074
:10175000074A0368934203D0996882680A449A60F2
:1017600042681360016800234A60C360704700BF8D
:101770000839010000000000000000000000000027
:1017800010B4202383F31188037F032B18D00D2B73
:101790001AD083B14FF0FF34002381680D4A4462B0
:1017A0000377126893688B42FBD2516841600260F4
:1017B00000235060086083F311885DF8044B704784
:1017C000426A93680133936090E80C001A600268E3
:1017D0005360DFE71839010000000000000000003E
:1017E000034B00225B601B605B611B619A6070476A
:1017F0001839010000000000000000000000000097
:1018000000228168084B10B4044602771B689A686E
:101810008A42FBD25A686260236020465C60146092
:101820005DF8044B704700BF18390100000000004C
:10183000084B30B41A689969146808770125142098
:101840008877636015771C60104630BC9A61FFF79B
:1018500087BE00BF18390100000000000000000032
:1018600030B54B1C87B012D00C4C0D4AA36905460D
:1018700001A8FFF74DFF2846FFF7DAFF049B13B1DD
:1018800001A8FFF765FFA369586A07B030BD034C94
:10189000FFF7CEFFA369586A07B030BD18390100C1
:1018A000811701000000000000000000000000009F
:1018B000144BF0B49E6984680546B068696284423E
:1018C0004FF000020BD82A771B689A689442FBD924
:1018D0005A686A602B605D601560F0BC70473277B3
:1018E0001A46126891688842FBD9546874600127CF
:1018F0003260566026602F77314628469D61F0BCE5
:10190000FFF72EBE183901000000000000000000A3
:101910000E4A1068F0B40368946913600127142616
:101920000025A1685A60077703469061A67725775E
:1019300000E01B689A688A42FBD25A6862602360A2
:1019400021465C601460F0BCFFF70ABE1839010044
:101950000D4A106870B4036894691360012600256D
:10196000A1685A60067703469061257700E01B68FE
:101970009A688A42FBD85A686260236021465C609C
:10198000146070BCFFF7ECBD1839010000000000C6
:10199000034B9B699B7F0BB1FFF7DABFFFF7B8BF23
:1019A00018390100000000000000000000000000E5
:1019B000F0B50F4C016466694661002200F12C0508
:1019C0004FF0020C4FF0140E00F128078160046103
:1019D00080F81CC0606180F81EE04277C2638263B9
:1019E00002628261306187620563C562F0BD00BF3B
:1019F0001839010000000000000000000000000095
:101A00002DE9F84F984696460446202383F3118823
:101A1000194B0A9F5A69DFF864B064390144002504
:101A200000F12C0600F1280C4FF0020A4FF01409C7
:101A3000C160C1F840804F64C1F860B00361C0F874
:101A400008E04261C0F840E0586180F81CA080F8CE
:101A50001E904577C56385630562856129461061DF
:101A6000C0F828C00663C662FFF722FF2B4683F347
:101A700011882046BDE8F88F183901008115010052
:101A800008B50146202383F311880620FFF7E8FEFE
:101A9000002383F3118808BD00000000000000004F
:101AA00038B50E4B9C692546606255F8280FA84250
:101AB00006D00368A362FFF7A3FEA06AA842F8D18C
:101AC000637F9B0704D1636922691A6122695361AC
:101AD0000E20BDE83840FFF7ABBE00BF183901004B
:101AE000202383F31188FFF7DBBF00BF0000000055
:101AF0000023406000608360704700BF000000006A
:101B000008B5836B027F1943082A81630BD0092A29
:101B100000D008BD436A19408B42FAD1FFF770FE2E
:101B20000023436208BD436A1942F7D108BD00BFD4
:101B300070B50468A04205460E4608D0201D0BC8AB
:101B40003343E360FFF7DCFF2468A542F6D170BDA4
:101B500071B1094B9B6910B458624468024683E82E
:101B600014000D20536023605DF8044BFFF778BE2E
:101B70004FF0FF30704700BF18390100000000002F
:101B800030B4029C046200250A4485600261406012
:101B9000006041618161C160C36130BC704700BFBA
:101BA000034640699A69904210B59A681BD0013289
:101BB000441C9A605C61017059691A6991420BD2A8
:101BC000186898420DD002681A605360FFF718FE3B
:101BD00000234362184610BD1868DA685A619842BB
:101BE000F1D1002010BD002AE1D06FF0030010BD3C
:101BF00070B520230E46044683F31188C3692BB1C8
:101C0000984703E0FFF7A4FF002815DBA5682046EE
:101C10003146002DF6D0A2692169531C8B4205F193
:101C2000FF35A361A56028BFE368107828BFA361D2
:101C3000002383F3118870BD2B4683F3118870BD98
:101C40002DE9F0471E46044689469246D0F81C808E
:101C5000202383F311880027B8F1000F05D0204618
:101C6000C04702E0FFF774FFE0B9A568204631469F
:101C7000002DF7D0A369013D5A1CA261A5601B7815
:101C800009F8013B2369A2699A4224BFE368A36172
:101C9000002383F311880137BA4506D0202383F34C
:101CA0001188D9E72B4683F311883846BDE8F087C1
:101CB00030B4029C04628D1805614060006082604F
:101CC00041618161C160C36130BC704700000000A8
:101CD000F8B504460F461646202383F3118803E027
:101CE000FFF736FF002819DBA56820463146002D96
:101CF000F6D06369013D5A1C6261A5601F702369BB
:101D000062699A4224BFE3686361E3690BB12046CC
:101D10009847002383F311881846F8BD2B4683F3B8
:101D20001188F8BD00000000000000000000000065
:101D300038B5826943699342836818D00569511C9C
:101D4000013383608161A94214780DD20268824216
:101D500008D01168016003464B601046FFF750FD44
:101D600000234362204638BDC3688361EEE7002B41
:101D7000E4D06FF0020038BD000000000000000059
:101D80002DE9F84F9A4604460E461746D0F81C90A7
:101D9000202383F311884FF00008A56806F1010B9A
:101DA0006A1E20460DB36369A2605A1C62613278D4
:101DB0001A70236962699A4224BFE3686361B9F1CA
:101DC000000F00D0C847002383F31188013F08F1BA
:101DD000010813D0202383F31188A5685E466A1E8C
:101DE00006F1010B2046002DDDD120465146FFF7BC
:101DF000AFFE0028D1D02B4683F311884046BDE8C2
:101E0000F88F00BF0000000000000000000000008C
:101E100008B500F07DFA074800F0BAFB00F010F8B2
:101E200000F026F800F074F800F0BAF8BDE80840B9
:101E300000F0FEBF003401000000000000000000C0
:101E400000F02EBB000000000000000000000000B9
:101E500000230122027043608360C3600361436119
:101E60001830FFF745BE00BF000000000000000072
:101E700000F006BE000000000000000000000000AE
:101E80000122002302704360704700BF0000000081
:101E90000C30FFF7D5BE00BF0000000000000000BE
:101EA0000C304FF0FF33FFF7CBBE00BF0000000047
:101EB0003030FFF765BF00BF0000000000000000E9
:101EC00030304FF0FF33FFF75BBF00BF0000000072
:101ED0000C30FFF78DBE00BF0000000000000000C6
:101EE0000C304FF0FF31FFF783BE00BF0000000051
:101EF0003030FFF7EDBE00BF000000000000000022
:101F000030304FF0FF32FFF7E3BE00BF00000000AB
:101F100000F00EBF00000000000000000000000004
:101F200070B50E4B044682B040F8043B0126009485
:101F30000B461546606004F1540104F10C00267252
:101F40002022FFF71DFE00942B4604F1300004F11F
:101F500074012022FFF7ACFE02B070BD20330100F7
:101F600038B5436904460D463BB1294604F10C00DF
:101F7000FFF716FE00280BDB38BD04300421FFF705
:101F8000D7FD294604F10C00FFF70AFE0028F3DA1A
:101F9000201D8021BDE83840FFF7CABD00000000C9
:101FA00000F036BC0000000000000000000000004F
:101FB000002301220270436083600C30FFF798BD5C
:101FC00008B5074B074A196801F03D01996013688D
:101FD0000BB150689847BDE80840FFF769BA00BFE9
:101FE00000600240343901000000000000000000E1
:101FF000084B094819688268890901F03D0110B54C
:102000008C019C600AB1C0689047BDE81040FFF7A2
:102010004FBA00BF006002403439010000000000E8
:10202000084B094819680269090C01F03D0110B517
:102030000C049C600AB140699047BDE81040FFF76E
:1020400037BA00BF006002403439010000000000D0
:10205000084B094819688269890D01F03D0110B5E6
:102060008C059C600AB1C0699047BDE81040FFF73D
:102070001FBA00BF006002403439010000000000B8
:1020800008B5074B07485968026A01F03D01D9605D
:102090000AB1406A9047BDE80840FFF709BA00BF9F
:1020A0000060024034390100000000000000000020
:1020B000084B09485968826A890901F03D0110B549
:1020C0008C01DC600AB1C06A9047BDE81040FFF7A0
:1020D000EFB900BF00600240343901000000000089
:1020E000084B09485968026B090C01F03D0110B515
:1020F0000C04DC600AB1406B9047BDE81040FFF76C
:10210000D7B900BF00600240343901000000000070
:10211000084B09485968826B890D01F03D0110B5E3
:102120008C05DC600AB1C06B9047BDE81040FFF73A
:10213000BFB900BF00600240343901000000000058
:1021400008B5074B07481968026C01F03D0199601A
:102150000AB1406C9047BDE80840FFF7A9B900BF3D
:10216000006402403439010000000000000000005B
:10217000084B09481968826C890901F03D0110B5C6
:102180008C019C600AB1C06C9047BDE81040FFF71D
:102190008FB900BF00640240343901000000000024
:1021A000084B09481968026D090C01F03D0110B592
:1021B0000C049C600AB1406D9047BDE81040FFF7E9
:1021C00077B900BF0064024034390100000000000C
:1021D000084B09481968826D890D01F03D0110B561
:1021E0008C059C600AB1C06D9047BDE81040FFF7B8
:1021F0005FB900BF006402403439010000000000F4
:1022000008B5074B07485968026E01F03D01D960D7
:102210000AB1406E9047BDE80840FFF749B900BFDA
:10222000006402403439010000000000000000009A
:10223000084B09485968826E890901F03D0110B5C3
:102240008C01DC600AB1C06E9047BDE81040FFF71A
:102250002FB900BF006402403439010000000000C3
:10226000084B09485968026F090C01F03D0110B58F
:102270000C04DC600AB1406F9047BDE81040FFF7E6
:1022800017B900BF006402403439010000000000AB
:10229000084B09485968826F890D01F03D0110B55E
:1022A0008C05DC600AB1C06F9047BDE81040FFF7B5
:1022B000FFB800BF00640240343901000000000094
:1022C0000D4B30B400220D4D0D4C1A6011461346D3
:1022D000A858016044F833100133102B02F10C02AE
:1022E000F6D10849084A4FF0FF338B6030BCCB6011
:1022F0009360D360704700BFB439010040330100E0
:102300003439010000600240006402400000000017
:10231000204B21491A694FF0FF300022F0B51861B7
:102320001A615C6958615A611C6A1C4FDFF878E0D9
:102330001B4E1C4D64F080541C621A620724D3F8B3
:1023400024C058625A62C1F804E08A600C60F968DF
:1023500041F08071F960316841F001013160196C20
:1023600041F080511964296841F480712960196F26
:1023700001F44071B1F5007F03D04FF4803119674B
:102380001A67084A536823F400735360BDE8F040AD
:10239000FFF796BF0038024010E000E0F0ED00E0EB
:1023A000001000E0007000403F90020000000000BC
:1023B0003249334B4FF080504FF4404208641A606A
:1023C0000B6843F001030B600A682C4B9007FBD5A8
:1023D0009A6822F003029A609A689A6019468B689C
:1023E000264A13F00C03FAD1116801F0F9011160CB
:1023F0009360136843F48033136011681F4B8903A3
:10240000FBD55A6F42F001025A675A6F1B49920777
:10241000FBD51C4B4B600B68194A43F080730B6073
:1024200053685B04FCD515490A68144B9001FBD531
:10243000154AC3F884201A6842F080621A601A466E
:1024400011680E4B0901FBD5104A1149996040F201
:10245000057111609A6842F002029A601A46936808
:10246000064903F00C03082BF9D14B6C43F480436D
:102470004B644B6E43F480434B6670470038024018
:10248000007000400854400780400030003C02408B
:102490000094483800000000000000000000000028
:1024A00010B5084C2046FFF7D3FC0749074A084BF4
:1024B000A162E262236312206021BDE81040FFF7B1
:1024C00067B800BFB839010000200140A033010007
:1024D000162C0200000000000000000000000000B8
:1024E000C16A0A68136823F01F031360136813F0AE
:1024F0000103FBD130B40D7A4C68826A3D21A940BA
:1025000001202160536030BC93609060704700BF31
:102510001A4B1A680021196093062CD510B5184C77
:10252000E36A1B685B6813B3236903B32046FFF7B4
:10253000D7FF23699B684BB10522227020460121F9
:1025400098472378052B04BF0223237000222261C1
:102550000B49202383F31188606928B14FF0FF33C2
:1025600043624A61FFF74CF9002383F31188BDE809
:102570001040FEF79DBFFEF79BBF00BF002001404B
:10258000B839010000000000000000000000000059
:102590002DE9F04FDFF8B481DFF8B4C1D8F830A0EE
:1025A000DFF8B0E1634F644E644D654C6549664A9F
:1025B000DFF8A4B140F2FF194AEA090AC8F830A0CE
:1025C000D8F850A04AEA0909C8F850904368CCF8F6
:1025D00004308368CCF80830C368CCF80C30036949
:1025E000CCF814304369CCF820308369CCF824301F
:1025F0000368CCF80030036ACEF80430436ACEF8A2
:102600000830836ACEF80C30C36ACEF81430036BFE
:10261000CEF82030436BCEF82430C369CEF80030BA
:10262000C36B7B60036CBB60436CFB60836C7B6142
:10263000C36C3B62036D7B62836B3B60876D77602D
:10264000C76DB760076EF760476E7761876E376258
:10265000C76E7762476D3760466F6E60866FAE609B
:10266000C66FEE60D0F880606E61D0F884602E6234
:10267000D0F888606E62066F2E60D0F8905065606A
:10268000D0F89450A560D0F89850E560D0F89C50F0
:102690006561D0F8A0502562D0F8A4506562D0F8EA
:1026A0008C502560D0F8AC404C60D0F8B0408C60C5
:1026B000D0F8B440CC60D0F8B8404C61D0F8BC4001
:1026C0000C62D0F8C0404C62D0F8A8400C60D0F842
:1026D000C8105160D0F8CC109160D0F8D010D16003
:1026E000D0F8D4105161D0F8D8101162D0F8DC10B5
:1026F0005162D0F8C4101160D0F8E420CBF8042067
:10270000D0F8E820CBF80820D0F8EC20CBF80C204B
:10271000D0F8F020CBF81420D0F8F420CBF820200B
:10272000D0F8F820CBF82420D0F8E020CBF8002017
:10273000BDE8F08F00080240000C0240001002408B
:102740000014024000180240001C02400038024001
:10275000000002400004024000200240000000008F
:102760002DE9F04F4FF00F0C02F0030EC2F380077B
:10277000C2F3C106C2F341150024C2F3C3124FF0E5
:1027800001094FF003082BE0D0F820B02BEA030337
:1027900043EA0A030362436809FA04FA23EA0A03D4
:1027A0003B4343604FEA440A836808FA0AFA6FEA37
:1027B0000A0A0AEA030333438360C3680AEA03038D
:1027C0002B43C36003680AEA030343EA0E03036072
:1027D000490819D07F00B600AD004FEA8E0E0134D3
:1027E00004F007039B0011F0010F02FA03FA0CFA40
:1027F00003F3EDD0072CC7D9D0F824B02BEA03039C
:1028000043EA0A034362C6E7BDE8F08F0000000018
:1028100070B5114E114B124C124D4FF6FF723046EF
:102820001A80FFF7C5FB1049104A114BF161204691
:1028300005F10C0135627162B262F362FFF7B8FB19
:102840000C490D4A0D4BE161A5F17801243D21624F
:102850006562A262E36270BDF0390100EC390100EB
:10286000203A0100B8330100003001401600010693
:1028700046000106003C004016000300460003002D
:10288000026970B51469D368DBB21C40E343A60744
:10289000054613611DD4600716D421070FD4E20644
:1028A00008D4E30700D470BD6B6828469B68BDE878
:1028B000704018476B6828469B6A9847F1E76B6839
:1028C00028461B6A9847EAE76B6828469B69984741
:1028D000E3E743681B699847DDE700BF000000009D
:1028E00008B50648064A43686FF001019B6811610C
:1028F0009847BDE80840FEF7DBBD00BF503A010035
:102900000000014000000000000000000000000086
:10291000134B10B51A69DC681440A4B2E2B2D2437A
:10292000A0071A6117D4610710D4220709D4E3065F
:1029300003D50C4843689B6A9847BDE81040FEF7F2
:10294000B7BD084843681B6A9847F0E705484368E5
:102950009B699847E9E7034843681B699847E2E7A2
:1029600000000140503A010000000000000000009B
:1029700008B50348FFF784FFBDE80840FEF798BD9F
:10298000643A0100000000000000000000000000A8
:1029900008B50348FFF774FFBDE80840FEF788BD9F
:1029A000783A010000000000000000000000000074
:1029B00008B50348FFF764FFBDE80840FEF778BD9F
:1029C0008C3A010000000000000000000000000040
:1029D00008B50348FFF754FFBDE80840FEF768BD9F
:1029E000A03A01000000000000000000000000000C
:1029F00008B50648064A43686FF001019B681161FB
:102A00009847BDE80840FEF753BD00BFB43A010047
:102A10000004014000000000000000000000000071
:102A2000134B10B51A69DC681440A4B2E2B2D24369
:102A3000A0071A6117D4610710D4220709D4E3064E
:102A400003D50C4843689B6A9847BDE81040FEF7E1
:102A50002FBD084843681B6A9847F0E7054843685C
:102A60009B699847E9E7034843681B699847E2E791
:102A700000040140B43A0100000000000000000022
:102A80002DE9F843DFF87890DFF87880134F144E83
:102A9000144D154C4846FFF7F3F9144BC9F81030A4
:102AA0004046FFF7EDF94FF080433846C8F8103044
:102AB000FFF7E6F90E4B3B613046FFF7E1F90D4BAE
:102AC00033612846FFF7DCF90B4B2B612046FFF7FB
:102AD000D7F90A4B2361BDE8F88300BF783A0100BB
:102AE0008C3A0100A03A0100B43A01000000014014
:102AF0000004004000080040000C004000040140B9
:102B0000503A0100643A010000000000000000009B
:102B1000034A93899BB243F080039381704700BFBF
:102B20000010014000000000000000000000000054
:102B3000034A93899BB243F080039381704700BF9F
:102B40000044004000000000000000000000000001
:102B5000034A93899BB243F080039381704700BF7F
:102B600000480040000000000000000000000000DD
:102B7000034A93899BB243F080039381704700BF5F
:102B800000140140000000000000000000000000F0
:102B90002DE9F041D0F89450AF892C88A4B2E20519
:102BA0000646BFB252D4202383F3118814F02F0FAE
:102BB0002ED006F1040808E0A988A00689B21ED428
:102BC0002C88A4B214F02F0F22D02307F4D014F0D5
:102BD000080F0CBF00218021E00748BF41F0200111
:102BE000A20748BF41F04001630748BF41F480712C
:102BF0004046FEF79DFFA988A00689B2E0D5C9B27C
:102C00003046FFF7ADF92C88A4B214F02F0FDCD1B9
:102C1000002383F31188390601D5220625D46306E3
:102C200012D5202383F31188726CB36C9A422BD097
:102C300027F04007BFB24FF6BF72AF8100232A8052
:102C400083F31188BDE8F081BDE8F081202383F390
:102C500011884FF400710430FEF76AFF002383F3FC
:102C600011884FF6FF632B809DE7202383F31188A3
:102C700006F13000FFF75CF800280DDB80B2A88079
:102C8000002383F31188CAE7B36B002BD0D0301D2B
:102C90001021FEF74DFFCBE7301D0821FEF748FF5E
:102CA00027F0C00343F04003AB81E9E700000000D8
:102CB00008B50348FFF76CFFBDE80840FEF7F8BB16
:102CC000C83A010000000000000000000000000001
:102CD00008B50348FFF75CFFBDE80840FEF7E8BB16
:102CE000603B010000000000000000000000000048
:102CF00008B50348FFF74CFFBDE80840FEF7D8BB16
:102D0000F83B01000000000000000000000000008F
:102D100008B50348FFF73CFFBDE80840FEF7C8BB15
:102D2000903C0100000000000000000000000000D6
:102D3000F8B5124F124E134A134D144C3846002169
:102D4000FFF7EEF8124B134AC7F8943030460021D3
:102D5000FFF7E6F8104B114AC6F8943028460021D8
:102D6000FFF7DEF80E4B0F4AC5F8943020460021DD
:102D7000FFF7D6F80C4BC4F89430F8BDC83A010000
:102D8000603B0100112B0100F83B0100903C010069
:102D900000100140312B010000440040512B010084
:102DA00000480040712B01000014014000000000A9
:102DB0001A4B1B481A691B4970B54FF0FF320024AB
:102DC0001A611C615E695A615C611E6A1A621C624A
:102DD000C0F88020C0F88420C0F88820C0F88C207B
:102DE000C0F89020C0F89420C0F89820C0F89C202B
:102DF0005A6A0D4D62F080525A624FF000505C6288
:102E00004FF40072AC61FEF76BFA084A136843F0A6
:102E100003031360BDE87040FFF7CABA00380240F0
:102E200000E100E0003501000000044000380140EE
:102E3000704700BF0000000000000000000000001C
:102E4000704700BF0000000000000000000000000C
:102E500010B584B001231021002200930293019148
:102E600003920020202100F0EBF904460028F8D15D
:102E7000684600F0B5F90120FEF702FE022110229B
:102E800001238DE81E000020202100F0D9F904461E
:102E90000028F8D1684600F0A3F90321102204238A
:102EA0008DE81E000020202100F0CAF90028F9D189
:102EB000684600F095F90020202100F0C1F90028B3
:102EC000F9D1684600F08CF904201021012240F26B
:102ED00021238DE80F000020202100F0B1F9002807
:102EE000F9D1684600F07CF940F2AB2000F088F997
:102EF0002021002000F0A4F901460028F8D100F0BC
:102F000087F904B010BD00BF000000000000000001
:102F10002DE9F0431B4A936B93B043F00103936395
:102F20000421022300224FF0100C4FF0400E07A89E
:102F30004FF007094FF006084FF480774FF4006612
:102F40004FF480554FF40054009304930593069377
:102F500002910991079208920D92CDF828C0CDF800
:102F60002CE0CDF80490CDF80C800C970E960F95C0
:102F70001094CDF844D000F0CBF8FFF769FF13B000
:102F8000BDE8F083003802400000000000000000AF
:102F9000FFF7BEBF000000000000000000000000BE
:102FA00030B583B00546019114460020202100F081
:102FB00047F90028F9D15CB1019B03F14043013C82
:102FC0001A68019B45F8042B03F104030193F3D124
:102FD00003B030BD00000000000000000000000051
:102FE000F0B51E4A1E4E136B012443F48053136345
:102FF00083B0B46000BF00BF00BF8F087C1E0546D1
:1030000006E055F8043B93FAA3F33360FCB1013CAE
:10301000631CF6D1124B00EB8704186890FAA0F0FD
:1030200001F0030121448C420ED014F8012B082337
:103030005040C5074FEA50024ABF0A484008504076
:10304000013BF6D18C42F0D1C04303B0F0BD8DE816
:10305000030000F055F89DE80300D8E7003802406F
:10306000003002402083B8ED0000000000000000A6
:1030700008B5202383F3118800F032FB002383F38B
:103080001188184608BD00BF0000000000000000C5
:10309000184A38B5D368B3F5803F06D1164D7F2462
:1030A0002C60D368B3F5803FFAD0124BDA681A6906
:1030B00022F440721A611A6942F400721A611A69A4
:1030C00042F001021A610160DA68B2F5803F06D170
:1030D00009487F210160DA68B2F5803FFAD0054BDC
:1030E000DC681A6922F001021A6100F009F8204632
:1030F00038BD00BF003C0240002C00400000000032
:10310000704700BF00000000000000000000000049
:103110002DE9F00183B0836901938668C36805696E
:103120004469C769D0F82080416A02681E4335436C
:10313000019B2C4323433B4343EA080344680B436E
:10314000234302BB876A234E07F10C013360BD683D
:1031500078683C688EC9013D2D02013845EA0010AF
:10316000013C0443013944EA0130013A40EA02419A
:10317000013B41EA03527B1E42EA0363B36003B0A2
:10318000BDE8F0017047134D48EA070C4CEA010115
:10319000876A296045F82230BE687B68FC68396818
:1031A00078693F69013E3602013B46EA0313013C60
:1031B00001391943023224037B1E013844EA0050CE
:1031C00041EA0343A86045F8223003B0BDE8F001AE
:1031D000704700BF400100A0000000000000000098
:1031E000011D30B42AC90268044C0A4342EA452250
:1031F000013B42EA4313236130BC7047400100A009
:10320000024A536943EA400050617047400100A000
:10321000800000F1204039B9D0F8402147F6FF5333
:103220001340C0F840317047D0F8403143F4007388
:10323000C0F84031704700BF0000000000000000EF
:10324000102810D0B0F5807F10D0B0F5805F0BBF94
:10325000084B094B5B689B6903EA0100081AB0FA46
:1032600080F040097047054B5B68F5E7044B5B68ED
:10327000F2E700BFA00000A0400100A0600000A095
:10328000800000A00000000000000000000000001E
:10329000BFF34F8F0449054BCA6802F4E062134341
:1032A000CB60BFF34F8FFEE700ED00E00400FA05AE
:1032B0000B4B70B54FF480020A4D9A610A244026E8
:1032C0004FF47A70AE61FEF7DBFB4FF48003AB6125
:1032D0004FF47A70FEF7D4FB013CF1D1FFF7D8FF31
:1032E000001802400008024000000000000000003A
:1032F00069646C6500000000000000000000000030
:103300006D61696E00168911040444080C101418CC
:10331000001C1D001E200000000000000000000036
:10332000C11E0100A11E0100011F0100E11E0100DC
:10333000F11E0100D11E0100B11E0100911E01000D
:10334000106002400860024000000B00286002404C
:103350000860024006010C00406002400860024024
:1033600010020D00586002400860024016030E0073
:10337000706002400C60024000040F008860024050
:103380000C60024006051000A06002400C60024084
:1033900010061100B86002400C60024016072F00B2
:1033A00010640240086402400008380028640240AB
:1033B0000864024006093900406402400864024083
:1033C000100A3A005864024008640240160B3B00A1
:1033D000706402400C640240000C3C0088640240AF
:1033E0000C640240060D4400A06402400C640240DC
:1033F000100E4500B86402400C640240160F4600EF
:103400000000802A00000000FFFFFFFF0000000016
:10341000FFFF00000000000000A00A000000A00064
:10342000000C0000BFFEFFFF95420555FFFF0000A6
:103430000000000000440000A20020020000000084
:10344000FFFFFFFF04154554FFFF00000CCC0000F8
:10345000000606000A012AA400000000FFEBFFFF9F
:1034600050644001FFCF0000CC000000CC0C00CC29
:103470004A80AAAA00000000FFFFFFFF0000000032
:10348000FFFF0000CC0000C0CCCCCCCCAA0AB0AA74
:1034900000000000FFFFFFFF00000000FFFF000032
:1034A000CCCCCC0000C0CCCC2A0A028000000000AA
:1034B000FFFFFFFF00000004FFFF0000CC0CCC006A
:1034C0000C0000C00000000000000000FFFFFFFF34
:1034D00000000000FFFF00000000000000000000EE
:1034E0000000000000000000FFFFFFFF00000000E0
:0C34F000FFFF00000000000000000000D2
:1035000000020010011001004114010041140100EB
:103510004114010041140100411401004114010053
:103520004114010041140100411401006114010023
:103530004114010041140100411401004115010032
:103540004114010041140100411401004114010023
:103550004114010041140100411401004114010013
:10356000411401004114010041140100C11F010078
:10357000F11F0100212001005120010081200100E4
:10358000B1200100E12001001125010041140100DA
:1035900041140100411401004114010041140100D3
:1035A00041140100E128010041140100112901002A
:1035B0007129010091290100B12901004114010084
:1035C00041140100411401004114010041140100A3
:1035D00041140100B12C0100D12C0100F12C01009B
:1035E0004114010041140100411401004114010083
:1035F000F129010041140100212A010011210100DB
:103600004114010041140100D129010041140100BD
:103610004114010041140100411401004114010052
:103620004121010071210100A1210100D1210100EE
:103630000122010041140100411401004114010064
:103640004114010041140100411401004114010022
:10365000312201006122010091220100112D01009F
:103660004114010041140100411401004114010002
:1036700041140100412E01004114010041140100D8
:1036800041140100411401004114010041140100E2
:1036900041140100411401004114010041140100D2
:0C36A0004114010041140100411401001C
:1036B000074AD368B3F5803F06D106487F210160F1
:1036C000D368B3F5803FFAD0014BD868704700004B
:1036D000003C0240002C0040000000000000000000
:1036E0001C4B1A6922F440721A611A6942F4007282
:1036F0001A611A6922F0F8021A611A6942F002028C
:1037000042EAC00018611A6942F480321A61DA682C
:10371000B2F5803F06D110487F210160DA68B2F52A
:10372000803FFAD00B4AD368136923F00203136178
:10373000136923F002031361D368B3F5803F06D108
:1037400005487F210160D368B3F5803FFAD0014B73
:0C375000DB687047003C0240002C004089
:0400000310001001D8
:00000001FF
